:100000000C94BF000C9484140C94AB140C94E70073
:100010000C94E7000C94E7000C94E7000C94E700C4
:100020000C94E7000C94E7000C94E7000C94E700B4
:100030000C94E7000C94E7000C94E7000C94E700A4
:100040000C94D2140C94E7000C94AD170C94DF17A9
:100050000C94E7000C94E7000C94E7000C94E70084
:100060000C94E7000C94E7002E005245424F4F5489
:10007000494E4700464C583F4F4B00494D47203EA4
:100080002033316B2C20746F6F2062696700464CFF
:10009000583F4F4B20726573656E64005D203E20B3
:1000A00000726164696F205B00554E536869667425
:1000B000696E67206368616E6E656C20746F2000E6
:1000C0005368696674696E67206368616E6E656CFB
:1000D00020746F2000464C583F4F4B202841434B23
:1000E0002073656E7429004641494C3A4E4F2046B4
:1000F0004C415348204D454D00444F4E4500464C21
:1001000041534820494D47205452414E534D495385
:1001100053494F4E2053554343455353210A000042
:1001200000000800020100000304070000000000B6
:1001300000000001020408102040800102040810A1
:10014000200102040810200404040404040404022E
:100150000202020202030303030303000000002360
:10016000002600290000000000250028002B0000C8
:10017000000000240027002A0000BD020F181124EF
:100180001FBECFEFD8E0DEBFCDBF12E0A0E0B1E0F0
:10019000E2E0F3E402C005900D92AC39B107D9F763
:1001A00024E0ACE9B2E001C01D92AC39B207E1F73E
:1001B00010E0CFEBD0E004C02197FE010E94411C6B
:1001C000CD3BD107C9F70E944B1A0C947F210C94A8
:1001D000000080910601882319F061E171E002C0FE
:1001E0006FE071E08BEE92E00E94C31081E0089511
:1001F00026E040E052EC61E070E08BEF93E00E947B
:10020000481787E593E00E945704882319F066E1B8
:1002100071E002C069E271E08BEF93E00E94BF18C9
:1002200021E040E065E08BEE92E00E94ED0F4EE3AE
:1002300051E062E471E08BEE92E00E94181343E01B
:1002400050E062E08BEE92E00E943A131092EA02D4
:1002500021E040E060E08CED92E00E94190F61E047
:1002600083E00E94ED1561E084E00E94ED1561E0FD
:1002700085E00E94ED1561E086E00E94ED1561E0E9
:1002800083E00E94291661E084E00E94291661E063
:1002900085E00E94291661E086E00E9429166DE43F
:1002A00071E08BEF93E00C94BF18CF93DF93EC01D8
:1002B00061E171E00E942B1A882321F080910601F0
:1002C000882359F06FE071E0CE010E942B1A882339
:1002D00069F180910601882349F160E083E00E9482
:1002E000291660E084E00E94291664EF71E080E046
:1002F00090E00E944D1561E083E00E94291661E0C4
:1003000084E00E9429169091060181E0892780935C
:10031000060121E040E060E08CED92E00E94190FC0
:1003200088EC90E0DF91CF910C94540FDF91CF9146
:100330000895CF93DF9300D000D000D0CDB7DEB7C3
:1003400067E571E08BEF93E00E94A0184AE050E06F
:1003500060919E028BEF93E00E947F1960E671E04E
:100360008BEF93E00E94A0184AE050E06091A00259
:100370008BEF93E00E947F1980919E02813091F46F
:100380008091A002823071F461EA72E0CE010196A0
:100390000E94161ACE0101960E945501CE010196C7
:1003A0000E94A81926960FB6F894DEBF0FBECDBFE7
:1003B000DF91CF910895AF92BF92CF92DF92EF92EB
:1003C000FF920F931F93CF93DF93CDB7DEB72B9799
:1003D0000FB6F894DEBF0FBECDBF8CE493E00E9451
:1003E000D004882309F4B8C083E090E00E94540F41
:1003F00081E891E09A83898380914E038B83809179
:100400004F038C83809150038D83809151038E83A1
:10041000809152038F838091530388878091540386
:100420008987809155038A87809156038B8729E0BD
:10043000C22EE12C009157031091580320915903CB
:1004400030915A0340915B0350915C0360915D03CE
:10045000CE0101960E94580E6BE58BEF93E00E944F
:10046000A21860916C034AE050E08BEF93E00E9489
:1004700078196BE671E08BEF93E00E94A0186BE5B2
:100480008BEF93E00E94A21860916B034AE050E06A
:100490008BEF93E00E9478196BE671E08BEF93E0AD
:1004A0000E94A01810E080916C03181758F4E12FF7
:1004B000F0E0E259FC4F60818BEF93E00E94A218BC
:1004C0001F5FF1CF6EE671E08BEF93E00E94A01802
:1004D00060916503709166034AE050E08BEF93E012
:1004E0000E9464196BE771E08BEF93E00E94BF18E4
:1004F000C0906C038091680320916503309166037E
:1005000040916A0360916B03D12C01E0811101C01D
:1005100000E050E070E08CE9A82E82E0B82E9EE664
:10052000E92E93E0F92E8BEE92E00E94C6108C012A
:1005300080916803882339F040E06FE872E08CE432
:1005400093E00E94690A83E090E00E94540F01301A
:10055000110511F40E9499012B960FB6F894DEBF95
:100560000FBECDBFDF91CF911F910F91FF90EF9004
:10057000DF90CF90BF90AF900895EF92FF920F93CE
:100580001F9340E35FEE68E087E593E00E94FB0283
:10059000ECE4F3E081E891E0918380838AE0828358
:1005A00082E08383148281E080936D0316828FE161
:1005B0008783108640E0BF018BEE92E00E946B0FB4
:1005C0001CE2E12EFF24F39400E010E029EE30E07D
:1005D00042E050E062E08CED92E00E94E40E1F9158
:1005E0000F91FF90EF9008958EBD00000DB407FEAF
:1005F000FDCF8EB50895FC0180E58583168260836A
:10060000528341830895FC018CB583838DB5848327
:100610004581368180916003882399F02FB7F89443
:1006200080916003813059F48DB380935E039DB354
:1006300080915F03809589238DBB2FBF02C02093DB
:100640005E034CBD3DBD60E080810C942916CF93C4
:10065000DF93EC0161E088810E942916809160039C
:10066000882361F09FB7F8942091600380915E0326
:10067000213019F48DBB9FBF01C08FBF8B818CBD12
:100680008C818DBDDF91CF9108950F931F93CF93F0
:10069000DF938C010E9403038FE90E94F40280E043
:1006A0000E94F402C82FD0E0DC2FCC2780E00E940B
:1006B000F402C82BC8010E942703CE01DF91CF911D
:1006C0001F910F9108951F93CF93DF93EC010E9428
:1006D000030385E00E94F40280E00E94F402182FD8
:1006E000CE010E942703812FDF91CF911F910895A2
:1006F0000E946303817008951F93CF93DF93EC01F1
:10070000162F442339F040E066E00E947C03CE01BE
:100710000E942703CE010E9478038111FBCFCE01F6
:100720000E940303812FDF91CF911F910C94F4025B
:10073000EF92FF920F931F93CF93DF9300D0CDB72B
:10074000DEB77C01142F062F41E062E02A83598333
:100750000E947C03802F0E94F4025981852F0E9401
:10076000F402812F0E94F4022A81822F0E94F40257
:10077000C7010F900F90DF91CF911F910F91FF90C4
:10078000EF900C9427032F923F924F925F926F92BB
:100790007F928F929F92AF92BF92CF92DF92EF9211
:1007A000FF920F931F93CF93DF936C012A013B01BC
:1007B0005901CA019927C0E0D1E0C81BD90BE12C2F
:1007C000F12C0115110579F10C171D0708F4E8014A
:1007D00041E062E0C6010E947C03862D0E94F40283
:1007E000852D0E94F402842D0E94F40215012E0C26
:1007F0003F1C4101F40181914F010E94F402C401A8
:10080000821993098C179D07A8F3C6010E9427033C
:100810004C0E5D1E611C711CEC0EFD1E0C1B1D0B95
:10082000C0E0D1E0CECFDF91CF911F910F91FF902B
:10083000EF90DF90CF90BF90AF909F908F907F9080
:100840006F905F904F903F902F900895EF92FF929E
:100850000F931F93CF93DF931F92CDB7DEB77C0129
:10086000142F062F41E062E559830E947C03802FFC
:100870000E94F4025981852F0E94F402812F0E9468
:10088000F402C7010F90DF91CF911F910F91FF905C
:10089000EF900C942703CF93DF93EC0140E06BEAD9
:1008A0000E947C03CE01DF91CF910C942703CF935C
:1008B000DF93EC018CB58B838DB58C8361E08881EF
:1008C0000E94ED1580E58D831E82CE010E942703D4
:1008D000CE010E944B0489819A81892B51F0CE016F
:1008E0000E94450329813A818217930711F080E025
:1008F0000CC041E061E0CE010E947C0380E00E94D8
:10090000F402CE010E94270381E0DF91CF91089588
:10091000CF93CFB7F89480916103811127C0E1E5AF
:10092000F1E08491EDE3F1E09491E82FF0E0EE0F37
:10093000FF1FE159FE4FA591B491EC91E92321F4F9
:1009400061E08AE00E94291661E08AE00E94ED15CC
:100950008CB580618CBD8CB580648CBD61E08DE010
:100960000E94ED1561E08BE00E94ED15809161031E
:100970008F5F80936103CFBFCF910895089581E089
:10098000809364038091620390916303DC01ED9195
:10099000FC910484F585E02D099510926403089577
:1009A000F89420916D03233021F4209169032111E3
:1009B0000FC020916D03233011F4789407C0DC013F
:1009C000ED91FC910288F389E02D099580E008956E
:1009D000DC01ED91FC910488F589E02D61E0099539
:1009E00081E00895CF93DF93EC0161E08A810E945A
:1009F000291689858CBD8A858DBD809164038111FE
:100A000001C07894DF91CF910895FC01F8948CB5E2
:100A100081878DB582878CB5837F8CBD8CB58F7DAA
:100A20008CBD8CB58C7F8CBD8DB58E7F8DBD60E00F
:100A300082810C942916DC01ED91FC910488F589E2
:100A4000E02D60E00994CF93DF931F92CDB7DEB71E
:100A5000DC01ED91FC910480F581E02D698309951D
:100A60006981882361F080916B03861711F06F3FD5
:100A700029F49091670381E0911101C080E00F900B
:100A8000DF91CF9108952F923F924F925F926F9294
:100A90007F928F929F92AF92BF92CF92DF92EF920E
:100AA000FF920F931F93CF93DF936C01D62F3A01E0
:100AB000F22E102FC0E08E2C912CA12CB12CD6013F
:100AC000ED91FC910190F081E02D01E02F2DA3012B
:100AD0006D2FC60109950E941C151B012C010E9457
:100AE0001C15DC01CB0182199309A409B5098815ED
:100AF0009905AA05BB0538F46D2FC6010E94230590
:100B0000882369F304C0CF5F1C17C8F680E0DF912B
:100B1000CF911F910F91FF90EF90DF90CF90BF90FA
:100B2000AF909F908F907F906F905F904F903F908D
:100B30002F900895EF92FF921F93CF93DF931F9210
:100B4000CDB7DEB77C01DC01ED91FC91008CF18D1D
:100B5000E02D698309956981862F8F770E94F402C1
:100B600080E00E94F402182FD701ED91FC91028CD5
:100B7000F38DE02DC7010995812F0F90DF91CF9163
:100B80001F91FF90EF9008950F931F93CF93DF93E2
:100B90008C0167E00E949A05D82F68E0C8010E9486
:100BA0009A05C82F69E0C8010E949A054D2F50E0B0
:100BB00060E070E0BA0155274427480F511D611DC0
:100BC000711D8C2F90E0982F88278A019B01080FB8
:100BD000191F211D311DC901B8010E94FC1A20E016
:100BE00034E244E752E40E948A1B0E94CD1ADF914E
:100BF000CF911F910F9108950F931F93CF93DF9380
:100C000000D0CDB7DEB78C01DC01ED91FC91008CFA
:100C1000F18DE02D4A83698309956981862F80686B
:100C20000E94F4024A81842F0E94F402D801ED91BF
:100C3000FC91028CF38DE02DC8010F900F90DF9195
:100C4000CF911F910F910994CF92DF92EF92FF9273
:100C50001F93CF93DF93EC016A017B0110916D0329
:100C6000143039F4E881F9810488F589E02D63E0D6
:100C70000995C701B6010E94FC1A20E034E244E75E
:100C800052E40E945B1A0E94CD1A6B017C01A701FD
:100C90006627772767E0CE010E94FC0577276F2D36
:100CA0005E2D4D2D68E0CE010E94FC054C2D69E0C3
:100CB000CE010E94FC05133041F4E881F9810488DB
:100CC000F589E02D62E0CE010995E881F98104887B
:100CD000F589E02D612FCE01DF91CF911F91FF901B
:100CE000EF90DF90CF9009941F93CF93DF932091E3
:100CF0006D03621709F45DC0162FEC016230E9F153
:100D000068F4662309F440C0613009F052C061E024
:100D10000E949A05837E482F44603BC06330B9F03F
:100D2000643009F046C061E00E949A05837E482F36
:100D30004C6061E0CE010E94FC058885882369F142
:100D4000E881F9810688F789E02D61E013C061E050
:100D50000E949A05837E482F406161E0CE010E9487
:100D6000FC0588858823C9F0E881F9810688F78920
:100D7000E02D60E0CE01099510C061E00E949A0567
:100D8000837E482F486005C061E00E949A05482F85
:100D9000437E61E0CE010E94FC0580916D038111CC
:100DA00006C067E2CE010E949A0587FFF6CF109336
:100DB0006D03DF91CF911F910895CF93DF93EC01E5
:100DC000603208F06FE16F838885882311F06695A3
:100DD0006F8361E1CE010E949A05807E9F81482F3A
:100DE000492B61E1CE01DF91CF910C94FC05CF92AC
:100DF000DF92EF92FF920F931F93CF93DF93EC015B
:100E0000F62ED42EC52E122FE881F9810488F5899B
:100E1000E02D61E0099567E2CE010E949A0587FF07
:100E2000FACF40E065E2CE010E94FC051E3308F0D7
:100E30001DE3E11004C0002321F000E403C000E83A
:100E400001C000E0E881F981008CF18DE02DCE0138
:100E5000099580E80E94F40283E0810F0E94F40269
:100E60008F2D0E94F4028D810E94F402802F0E9437
:100E7000F4020D2DED2CFC2C8E2D801B811730F4EF
:100E8000F70181917F010E94F402F6CFE881F98198
:100E9000028CF38DE02DCE010995E881F98104885B
:100EA000F589E02D64E0CE0109950E941C156B01C7
:100EB0007C018B810E945916892B81F0E881F98190
:100EC0000488F589E02D61E0CE01DF91CF911F917B
:100ED0000F91FF90EF90DF90CF9009940E941C1526
:100EE000DC01CB018C199D09AE09BF09883E9340F6
:100EF000A105B105F0F2E2CFCF93DF93EC011092A0
:100F00006C0310926B0310926A03109269031092A3
:100F1000680310926703109266031092650368E2FB
:100F20000E949A0582FF0AC06DE3CE010E949A05D5
:100F3000482F44606DE3CE010E94FC0540E465E269
:100F4000CE010E94FC05E881F9810488F589E02D35
:100F500063E0CE01DF91CF910994CF92DF92EF92BF
:100F6000FF920F931F93CF93DF93EC018B01E881E6
:100F7000F9810488F589E02D61E0099501151105D5
:100F8000F1F0E881F981008CF18DE02DCE01099519
:100F90008EEB0E94F4027801680180E1C80ED11C3A
:100FA000F70181917F010E94F402EC14FD04C1F766
:100FB000E881F981028CF38DE02DCE0109956DE376
:100FC000CE010E949A058E7F41E0012B09F440E09A
:100FD000482B6DE3CE01DF91CF911F910F91FF90D0
:100FE000EF90DF90CF900C94FC058F929F92AF9280
:100FF000BF92CF92DF92EF92FF920F931F93CF9306
:10100000DF93CDB7DEB7AE970FB6F894DEBF0FBE55
:10101000CDBF8C01E42E8EE2AE014F5F5F4F6A01BF
:10102000DA01E82F1D92EA95E9F791E0998334E01F
:101030003A8342E04B8393E09D834E833F8340E4B9
:10104000488735E039879A8796E09B8793E39C87AA
:1010500037E03D8798E09F8799E0998B99E19B8BDA
:1010600092E49C8B55E25D8B4E8B46E24F8B388F22
:1010700038E2398F30E13A8F39E23B8F3CED3C8FDB
:101080008D8F88E88E8F8FE28F8F8DE288A380E32B
:1010900089A337E33BA330E93CA338E33DA39EA3F8
:1010A0009CE39FA39FE898A79DE399A792E19AA745
:1010B0009FE69BA78CA78FEF8DA76F3131F06B3226
:1010C00031F0663531F084EE05C08EE403C08CE665
:1010D00001C089ED8E876F3121F06B3221F06635CA
:1010E00021F080EC03C080E401C080E0888B2AA35B
:1010F00061E0D80112968C910E94291661E0F801F6
:1011000082810E94ED150E9488040E941C154B01EB
:101110005C014AEA6FE2C8010E94FC056FE2C80167
:101120000E949A058A3A61F00E941C15DC01CB01ED
:1011300088199909AA09BB09C297A105B10548F305
:101140000E941C154B015C0145E56FE2C8010E943D
:10115000FC056FE2C8010E949A05853561F00E9486
:101160001C15DC01CB0188199909AA09BB09C29792
:10117000A105B10548F3F12CF601EF0DF11DEF0DBE
:10118000F11D60816F3F31F04181C8010E94FC0573
:10119000F394F2CF60E070E0C8010E94AD07D8017F
:1011A000ED91FC9111970084F185E02D18966C91DA
:1011B000C8010995D801ED91FC910488F589E02DCD
:1011C00061E0C80109950E941C154B015C0167E2B2
:1011D000C8010E949A0587FD0CC00E941C15DC0105
:1011E000CB0188199909AA09BB09C297A105B105C4
:1011F00070F30E941C15DC01CB0188199909AA091A
:10120000BB09C297A105B10598F41092640343E0AD
:1012100050E06FEB74E0F80184810E946414109335
:10122000630300936203D8011596EC9281E001C03C
:1012300080E0AE960FB6F894DEBF0FBECDBFDF9153
:10124000CF911F910F91FF90EF90DF90CF90BF90C3
:10125000AF909F908F900895CF93DF93EC01611131
:101260000DC064E2CE010E949A0590E091958195AF
:10127000910995958795DF91CF91089541E063E2BB
:101280000E94FC0563E2CE010E949A0581FFFACF1D
:10129000E8CFCF93DF9320916D032330A9F4209101
:1012A0006903211111C0EC0160E00E942C09863A0B
:1012B0009F4F54F4E881F9810488F589E02D61E0BD
:1012C000CE01099581E001C080E0DF91CF910895C2
:1012D000EF92FF921F93CF93DF93EC0180916D0308
:1012E000833001F568E2CE010E949A0582FD28C094
:1012F00019C080916C038D3330F4E0916C03F0E001
:10130000E259FC4F1082E881F981028CF38DE02DC7
:10131000CE010995E881F9810488F589E02D63E023
:10132000CE01099560E0CE010E942C0990936603DE
:1013300080936503DF91CF911F91FF90EF90089507
:10134000E881F9810488F589E02D61E0CE010995F5
:10135000E881F981008CF18DE02DCE01099580E0C6
:101360000E94F40280E00E94F4028093690380915D
:1013700069038334D0F4809169038093690380E02A
:101380000E94F40280936A038E81811109C09091BA
:101390006A038D81981721F080916A038F3F39F499
:1013A00080916903833018F017C082E4E6CF109271
:1013B0006903E881F981028CF38DE02DCE01099556
:1013C000E881F9810288F389E02DCE01DF91CF9188
:1013D0001F91FF90EF90099480916903835080934F
:1013E0006C0380E00E94F40280936B0380E00E9413
:1013F000F402982F907890936703982F90749093AD
:101400006803E881F9810684F785E02D682FCE0115
:10141000099510E080916C03181708F06ACFE12E4F
:10142000F12C80E00E94F402F701E259FC4F808326
:101430001F5FF0CF8F929F92AF92BF92CF92DF92B9
:10144000EF92FF920F931F93CF93DF93EC01162F30
:101450006A01F22E6DE30E949A05482F44606DE305
:10146000CE010E94FC050E941C154B015C01CE01BF
:101470000E9449098823C1F0E881F9810088F18937
:10148000E02DE12C2F2DA601612FCE010995DF91D2
:10149000CF911F910F91FF90EF90DF90CF90BF9071
:1014A000AF909F908F9008950E941C15DC01CB0196
:1014B00088199909AA09BB09883E9340A105B1057D
:1014C000D8F6E881F9810480F581E02DCE010995F7
:1014D000CECF4F925F926F927F92AF92BF92CF9298
:1014E000DF92EF92FF920F931F93CF93DF93EC0164
:1014F0005B01F42E1092680310916B03C09065039A
:10150000D09066036DE30E949A05482F44606DE316
:10151000CE010E94FC050E941C152B013C01CE014E
:101520000E944909882311F110936B03E881F98126
:101530000088F189E02DEE24E39400E02F2DA50131
:10154000612FCE010995D0926603C0926503DF91A9
:10155000CF911F910F91FF90EF90DF90CF90BF90B0
:10156000AF907F906F905F904F9008950E941C15F0
:10157000DC01CB0184199509A609B709883E93407F
:10158000A105B10588F6E881F9810480F581E02D97
:10159000CE010995C4CFCF93DF93EC016887611129
:1015A00002C04AE101C04FE063E1CE010E94FC05A8
:1015B0008885882341F061E1CE010E949A058F71F0
:1015C000482F406602C04F81406861E1CE01DF9143
:1015D000CF910C94FC051F93CF93DF93EC01162F52
:1015E000611102C045E501C04DE56AE5CE010E94EA
:1015F000FC05111102C040E701C04CE76CE5CE01CB
:10160000DF91CF911F910C94FC05FC01DB0181E877
:1016100091E09183808312968C9112978283139626
:101620008C911397838314968C91149784831596C9
:101630008C911597858316968C91169786831796AD
:101640008C911797878318968C9118978087199695
:101650008C91199781871A968C9182870895CF92E1
:10166000DF92EF920F931F93CF93DF93CDB7DEB747
:1016700027970FB6F894DEBF0FBECDBF6C0109836C
:101680001A832B833C834D835E836F83EE2099F016
:10169000CE0101960E94570481110DC04FE06DE903
:1016A00071E0C6010E94690A67EE70E08BEF93E07B
:1016B0000E94AD1806C046E06DEA71E0C6010E94C6
:1016C000690A27960FB6F894DEBF0FBECDBFDF9133
:1016D000CF911F910F91EF90DF90CF900895CF920F
:1016E000DF92EF92FF920F931F93CF93DF93CDB7CB
:1016F000DEB70DB71EB7262F30E0220F331FA9012A
:101700004F5F5F4FEDB7FEB7E41BF50B0FB6F894D4
:10171000FEBF0FBEEDBF4DB75EB74F5F5F4F7A01A3
:10172000FFEFEF1AFF0ADA01782F6C018C2D871B6F
:101730008617B8F4F60181916F01982F92959F70EA
:1017400090639A330CF0995D9C938F7080638A3319
:101750000CF0895DF7018083F2E0EF0EF11C129628
:10176000E5CFFA01E20FF31F1082BA018BEF93E08D
:101770000E94BF180FB6F8941EBF0FBE0DBFDF91B9
:10178000CF911F910F91FF90EF90DF90CF90089530
:101790002F923F924F925F926F927F928F929F9281
:1017A000AF92BF92CF92DF92EF92FF920F931F936F
:1017B000CF93DF93CDB7DEB7A5970FB6F894DEBF12
:1017C0000FBECDBF4C016CA3EC8EFD8E0E8F1F8F14
:1017D00028A339A34AA3ABA240E050E0BA01CE014E
:1017E0004C960E94260407E010E029EC31E040E02E
:1017F00050E0BA01CE014C960E94C3032AE349E0AF
:1018000050E060E070E0CE014C960E9498030E9488
:101810001C152B013C018AE0A82EB12C212C312C67
:10182000C4010E94D004882301F180916B032CA194
:1018300082131BC0D0906C0353E05D1520F480919F
:101840006E03863409F161E08BA10E94ED1561E021
:101850008BA10E94291661E070E080E090E00E9478
:101860004D1560E08BA10E9429160E941C15DC0119
:10187000CB0184199509A609B709893B9B40A105AD
:10188000B10570F280E03BC180916F038C34D9F6D2
:10189000809170038835B9F6809171038A3309F01D
:1018A000A6C056E05D1508F0A2C084E090E000E01C
:1018B00010E0F82E2FEF280FFC01E259FC4F308189
:1018C000303308F412C130813A3308F00EC1408140
:1018D000AAE0A09F9001A19F300D1124890100531F
:1018E0001109040F111D01968830910511F7CC20C4
:1018F000C1F061EA70E08BEF93E00E947C184AE04F
:1019000050E06D2D8BEF93E00E9478196CE970E048
:101910008BEF93E00E947C186D2D8EE693E00E9481
:101920006F0BE1E0EF0DF0E0E259FC4F80818A336C
:1019300009F0A8CF0E941C152B013C0102151305CC
:1019400039F0C10101970817190709F050C029C0E3
:1019500032E03F0D18018FEF281A380A3D1508F5BF
:10196000E32FF0E0E259FC4F208175019FEFE91A67
:10197000F90AA50160E070E0CE014C963DA30E94FB
:101980009803C7019F773DA1892B41F4A70160E02F
:1019900070E0CE014C960E9426043DA13F5F5701A6
:1019A000DDCF1F930F93A1EDB1E0BF93AF9381E023
:1019B00090E08C0F9D1F9F938F930E946D1E482F68
:1019C0000F900F900F900F900F900F90CC2049F038
:1019D000BE016F5F7F4F8BEF93E04DA30E94BF1856
:1019E0004DA1BE016F5F7F4FC4010E94690A8091C3
:1019F00071038F3309F027CF94E0D9121CC0B401D2
:101A0000CE0141960E94050BEE24E3940C8D1D8DB2
:101A10002E8D3F8D48A159A16AA1CE0141960E9409
:101A20002F0BCC2009F40FCF6EE870E08BEF93E022
:101A30000E94AD1808CFA7E0DA1205CF809172039B
:101A4000853409F000CF809173038F3409F0FBCE09
:101A500080917403863409F0F6CE85010A5011098D
:101A60000130BCE71B0778F0CC2031F06BE770E069
:101A70008BEF93E00E94AD184FE06BED71E0C40175
:101A80000E94690AFFCEB401CE0141960E94050B67
:101A900046E06DEA71E0CE0141960E94690ACC20D1
:101AA00031F064E770E08BEF93E00E94AD18212FD6
:101AB00047E050E060E070E0CE014C960E94980351
:101AC00026EF2A0D48E050E060E070E0CE014C9631
:101AD0000E9498032AE349E050E060E070E0CE0104
:101AE0004C960E94980381E00AC030813A3309F095
:101AF000FACE8F2DF22E843009F0F9CEC3CEA59602
:101B00000FB6F894DEBF0FBECDBFDF91CF911F910E
:101B10000F91FF90EF90DF90CF90BF90AF909F908C
:101B20008F907F906F905F904F903F902F9008958F
:101B30008F929F92AF92BF92CF92DF92EF92FF92DD
:101B40000F931F93CF93DF93CDB7DEB762970FB696
:101B5000F894DEBF0FBECDBF4C01B62EEC86FD86DD
:101B60000E871F87288B398B4A8BDC2CBC01CE015A
:101B700001960E94050BEE24E3940C851D852E85AD
:101B80003F85488959896A89CE0101960E942F0BA9
:101B9000CC20D9F065ED70E08BEF93E00E94AD189A
:101BA00060EC70E08BEF93E00E947C18C4010E940F
:101BB000C405AB01BC01405C5D4B604F7F4F2AE028
:101BC00030E08BEF93E00E949619C4010E94C40597
:101BD000AB01BC01405C5D4B604F7F4FC4010E9474
:101BE0002406B401CE0101960E94050BCD2CEC8495
:101BF000FD840E851F85288939894A896B2DCE0180
:101C000001960E94C80B182FDD20A9F069EA70E048
:101C10008BEF93E00E947C18C4010E94C405AB01C5
:101C2000BC01405452446F4071092AE030E08BEF10
:101C300093E00E949619C4010E94C405AB01BC0147
:101C4000405452446F407109C4010E942406812F00
:101C500062960FB6F894DEBF0FBECDBFDF91CF9175
:101C60001F910F91FF90EF90DF90CF90BF90AF90BA
:101C70009F908F900895C82F882331F06AE670E016
:101C80008BEF93E00E947C1898E088E10FB6F894FF
:101C9000A895809360000FBE90936000C11101C0B1
:101CA000FFCF68E670E08BEF93E00E947C18F6CFE0
:101CB000AF92BF92CF92DF92EF92FF920F931F935A
:101CC000CF93DF93CDB7DEB762970FB6F894DEBF40
:101CD0000FBECDBF0C871D872E873F87488B598B42
:101CE0006A8B20916C03243008F45DC020916E0350
:101CF000263409F058C020916F032C3409F053C0EA
:101D000020917003283509F04EC0209171032F33C4
:101D100009F049C0AC2CDE2CB0906B0320916C0311
:101D20002730A1F420917203253481F420917303AC
:101D30002F3461F420917403263441F400E026E04E
:101D40004DEA51E06B2D0E941A0A2DC0BC01CE0154
:101D500001960E94050BCD2CEC84FD840E851F8519
:101D6000288939894A896B2DCE0101960E94980DE8
:101D7000882359F0DD2031F06EEF70E08BEF93E0B7
:101D80000E947C188D2D0E943B0EDD2061F06BEED1
:101D900071E08BEF93E00E94A01869EF70E08BEF89
:101DA00093E00E94AD1862960FB6F894DEBF0FBEA6
:101DB000CDBFDF91CF911F910F91FF90EF90DF90FA
:101DC000CF90BF90AF900895EF92FF920F931F9323
:101DD000CF93DF93EC0168835A8349831D86EB829E
:101DE000FC820D831E833C872B8781E08E87EF82E8
:101DF000F88609871A870E94AB0F009749F0BE0149
:101E0000DF91CF911F910F91FF90EF900C94970F5E
:101E1000DF91CF911F910F91FF90EF900895DC011A
:101E20001B96ED91FC911C97309711F08C910994C1
:101E30000895CF92DF92FF920F931F93CF93DF937A
:101E400000D0CDB7DEB78C01F62E2A8349830E94DD
:101E5000AB0F6C012A8149810097D9F0411102C072
:101E6000FC01F280222319F0C8010E940F0FC80163
:101E70000E940D14F80146856F2DC6010F900F903A
:101E8000DF91CF911F910F91FF90DF90CF900C9435
:101E9000511280E00F900F90DF91CF911F910F9121
:101EA000FF90DF90CF900895CF93DF93EC0161E036
:101EB00089E00E94ED1561E089E00E942916BE01CB
:101EC000DD0F880B990B0E944D1560E089E0DF91D2
:101ED000CF910C942916CF93DF93EC01FC01E55AC6
:101EE000FD4F88EE93E091838083D093AC03C09341
:101EF000AB03798368834A83198618861B8240E284
:101F000050E06FEF70E0CE01885F9D4F0E94471E4A
:101F100040E250E064E370E0CE01855C9D4F0E949A
:101F20000E2160E08EE0DF91CF910C94ED15FC0165
:101F3000208531852F3F310509F060F4C9010196F4
:101F4000918780872B5F3F4F220F331FE20FF31FD4
:101F50007183608308958091AB039091AC030895E1
:101F6000FC01E85DFD4F885C9D4FDB012D91BD01BB
:101F70002193E817F907C9F70895CF93DF93EC0190
:101F800063E1888199810E949A05682F80E090E042
:101F90000E943621FE01E65CFD4F608181E090E009
:101FA0000E943621FE01E75CFD4F608182E090E0F7
:101FB0000E943621FE01E85CFD4F608183E190E0E4
:101FC0000E94362140E150E063E070E0CE01885D80
:101FD0009D4FDF91CF910C9426218F929F92AF92CB
:101FE000BF92CF92DF92EF92FF920F931F93CF9306
:101FF000DF931F92CDB7DEB74C01162F022F80E082
:1020000090E049830E941E2149818F3019F08A3166
:1020100009F052C0442309F44FC064E172E08BEF31
:1020200093E00E94BF1881E090E00E941E215401BD
:1020300096ECA91A9DEFB90AF501808382E090E041
:102040000E941E217401F7ECEF1AFDEFFF0AF70161
:10205000808383E190E00E941E216401F8ECCF1A96
:10206000FDEFDF0AF60180838401085D1D4F40E12A
:1020700050E063E070E0C8010E940E21F50120816C
:10208000F6014081F7016081F401808191810E9415
:10209000F507B801F401808191810F90DF91CF9114
:1020A0001F910F91FF90EF90DF90CF90BF90AF9076
:1020B0009F908F900C94AD076EE272E08BEF93E0EF
:1020C0000E94BF1824E6412F66E5F40180819181CA
:1020D0000E94F5076EE372E0F401808191810E9415
:1020E000AD07002329F16FE472E08BEF93E00E94CB
:1020F000BF18F401E85CFD4F1083319686E58083BC
:10210000319684E680836EE372E0C4010E94B00FD2
:10211000C4010F90DF91CF911F910F91FF90EF902D
:10212000DF90CF90BF90AF909F908F900C94BD0F99
:102130000F90DF91CF911F910F91FF90EF90DF9063
:10214000CF90BF90AF909F908F900895AC0182E0A8
:10215000E82FF0E093E0F595E7959A95E1F7E40F25
:10216000F51FE55CFD4F208130E020953095982FDC
:10217000977002C0359527959A95E2F720FF02C027
:102180008F5FE6CF0895CB010C9451136F927F922D
:102190008F929F92AF92BF92CF92DF92EF92FF9277
:1021A0000F931F93CF93DF93CDB7DEB727970FB66B
:1021B000F894DEBF0FBECDBF4C013B01D701BE82FC
:1021C000AD8223E0C216D1040CF454C111968C9157
:1021D0001197853008F04EC19C919F3F09F0B6C021
:1021E000833009F0B3C012968C9112978031D9F5E3
:1021F0000E941C1569837A838B839C83CE01019690
:102200000E94B313D4018D919C91DC01ED91FC915E
:1022100040910701509108010190F081E02D00E00C
:1022200027E0662D0995F30173E0F595E7957A951A
:10223000E1F78E0E9F1EF401E85FFD4FC30168E0D9
:1022400070E00E94F71B21E030E0A90102C0440FBA
:10225000551F8A95E2F7CA01809590818923808372
:1022600083E090E009C1833009F070C06BE572E053
:102270008BEF93E00E94BF18C4010E942214D40186
:102280008D919C91DC01ED91FC910284F385E02D10
:1022900060E00995F401C080D180D601ED91FC91F8
:1022A000A280B3800E944D138F830E944813AC011B
:1022B00068E2E62E02E02F81662DC601F501099540
:1022C000182FD4018D919C91DC01ED91FC91028439
:1022D000F385E02D6FE10995112309F4C2C0E09167
:1022E0000901F0910A018581E82FF0E053E0F595AE
:1022F000E7955A95E1F7E80DF91DE55CFD4F282FAC
:10230000277081E090E001C0880F2A95EAF7809558
:1023100090818923808340E250E064E370E0C4014F
:10232000855C9D4F0E94262160E772E08BEF93E071
:102330000E94BF18F401E85CFD4F21E041E060819C
:10234000C4010E94ED0FF40113828BC0AD80BE80EA
:10235000F50160828C91818311968C911197828313
:10236000038312968C91129784837D01F3E0EF0E24
:10237000F11CC5010596AD014C0D5D1D9601235064
:102380003109E416F50639F0F70161917F01FC018E
:102390006193CF01F6CF12968C91813109F464C01C
:1023A000843009F464C0830143E0159507954A958C
:1023B000E1F7C30168E070E00E94F71B782E800E01
:1023C000911EF8EF8F1AFDEF9F0AD4018C9190E0D7
:1023D00080959095072C02C0959587950A94E2F711
:1023E00080FF38C0D70111978C9111974C9150E024
:1023F00060E070E0BA0155274427782B12978C9142
:10240000482BF70133978081582B49835A836B837C
:102410007C830E941C1509811A812B813C81DC017F
:10242000CB01801B910BA20BB30B883B9B40A105FA
:10243000B10500F5CA0CDB1CF6013297108281E071
:1024400090E001C0880F7A94EAF7D4019C91892B1F
:102450008C9304C0F501E20FF31F158281E090E038
:102460000BC084E090E008C082E090E005C085E009
:1024700090E002C080E090E027960FB6F894DEBFAF
:102480000FBECDBFDF91CF911F910F91FF90EF90C5
:10249000DF90CF90BF90AF909F908F907F906F9084
:1024A00008954F925F926F927F928F929F92AF9218
:1024B000BF92CF92DF92EF92FF920F931F93CF9331
:1024C000DF93CDB7DEB7C154D1090FB6F894DEBFA4
:1024D0000FBECDBF4C01562E442309F470C010E04E
:1024E000FF24F39420E4422ECE0101963C010E9489
:1024F000A013D4018D919C91DC01ED91FC91409150
:102500000701509108010190F081E02D00E023E0E7
:10251000652D09950E941C155B016C01FF2009F4D3
:1025200040C00E941C15DC01CB018A199B09AC0933
:10253000BD09883E9340A105B105A0F5F401808155
:102540009181DC01ED91FC910480F581E02D0995EC
:10255000882339F3F301242D11922A95E9F7C090CD
:102560006C0380916803209165033091660340916C
:102570006A0360916B03D12C01E0811101C000E07E
:1025800050E070E053019EE6E92E93E0F92EC4017D
:102590000E94C610029761F4CE0106960E94731342
:1025A00013E0F12C1F5F133008F4A1CFFF2039F0A6
:1025B000D4018D919C910E941B0580E021C0F40103
:1025C000C080D180D601ED91FC91A280B3800E94A1
:1025D0004D1322968FAF22970E944813AC0188E2D8
:1025E000E82E02E022962FAD2297652DC601F50157
:1025F0000995182FD4018D919C910E941B05812F64
:10260000CF5BDF4F0FB6F894DEBF0FBECDBFDF91BB
:10261000CF911F910F91FF90EF90DF90CF90BF90DF
:10262000AF909F908F907F906F905F904F900895A4
:10263000EF92FF921F93CF93DF93EC017A018BE02F
:1026400090E00E94881340E06A81CE010E945112FE
:10265000182FB7018CE090E00E94881340E06A8157
:10266000CE010E9451128123DF91CF911F91FF90E3
:10267000EF900895CF93DF93EC01862FBA010E946B
:10268000FA1340E06A81CE01DF91CF910C94511290
:102690008091090190910A0108958091AD0390E025
:1026A0000895CF93BC01009761F0FC0101900020D8
:1026B000E9F73197E81BF90BE633F10520F4CE2F4B
:1026C00003C0C0E001C0C6E34C2F50E08091090177
:1026D00090910A0103960E945E1EE3E0EC0FE093E6
:1026E000AD03CF910895BC019091AD0320910901F4
:1026F00030910A0144E050E0F901E90FF11DCF01EA
:102700000E945E1E8091AD038C5F8093AD0308959F
:10271000E0910901F0910A019FEF9083E091090196
:10272000F0910A0193E09183E0910901F0910A018F
:1027300082836115710519F0CB010C945113089532
:10274000E0910701F09108018FEF8083E09107018C
:10275000F091080183E08183E0910701F091080185
:1027600080E182830895FC01A0910701B0910801E6
:102770008FEF8C93A0910701B091080183E011962F
:102780008C93A0910701B091080181E112968C937E
:102790001297808113968C931397408151816281A7
:1027A0007381452F562F672F77274083518362838C
:1027B000738314964C931497408151816281738185
:1027C000452F562F672F772740835183628373836A
:1027D00015964C9315974081518162817381452FE5
:1027E000562F672F77274083518362837383169612
:1027F0004C930895E0910901F0910A018083E091E2
:102800000901F0910A011182E0910901F0910A0198
:10281000628383E08093AD030895E0910901F09114
:102820000A01DC012C912083E0910901F0910A0159
:1028300021E02183E0910901F0910A0111968C9128
:10284000828308950F931F93CF93DF93EC01E09160
:102850000901F0910A018FEF8083E0910901F09165
:102860000A0183E081830091090110910A0184E04B
:10287000F8018283FE01E65CFD4F8081F8018383CD
:10288000FE01E75CFD4F8081F8018483CE010E9448
:10289000A610F8018583C85DDD4F80E090E02991A6
:1028A000E0910901F0910A01E80FF91F26830196D2
:1028B00080319105A1F786E18093AD03DF91CF913F
:1028C0001F910F91089508958230E8F4E82FF0E009
:1028D000EE0FFF1FE55FFE4F71836083813041F093
:1028E000809169008C7F482B40936900E89A089595
:1028F00080916900440F551F440F551F837F482B5B
:1029000040936900E99A08951F920F920FB60F92B3
:1029100011242F933F934F935F936F937F938F93E4
:102920009F93AF93BF93EF93FF93E0910B01F091CF
:102930000C010995FF91EF91BF91AF919F918F91FC
:102940007F916F915F914F913F912F910F900FBEAB
:102950000F901F9018951F920F920FB60F9211248F
:102960002F933F934F935F936F937F938F939F9397
:10297000AF93BF93EF93FF93E0910D01F0910E01A0
:102980000995FF91EF91BF91AF919F918F917F91A9
:102990006F915F914F913F912F910F900FBE0F90CC
:1029A0001F9018951F920F920FB60F9211242F931C
:1029B0003F938F939F93AF93BF938091F303909135
:1029C000F403A091F503B091F6033091F20323E0F4
:1029D000230F2D3720F40196A11DB11D05C026E857
:1029E000230F0296A11DB11D2093F2038093F303E0
:1029F0009093F403A093F503B093F6038091F7034B
:102A00009091F803A091F903B091FA030196A11DEA
:102A1000B11D8093F7039093F803A093F903B0934B
:102A2000FA03BF91AF919F918F913F912F910F909A
:102A30000FBE0F901F9018952FB7F8946091F30375
:102A40007091F4038091F5039091F6032FBF0895E0
:102A50003FB7F8948091F7039091F803A091F903A0
:102A6000B091FA0326B5A89B05C02F3F19F0019637
:102A7000A11DB11D3FBFBA2FA92F982F8827820F04
:102A8000911DA11DB11DBC01CD0142E0660F771F54
:102A9000881F991F4A95D1F708958F929F92AF9200
:102AA000BF92CF92DF92EF92FF926B017C010E9466
:102AB00028154B015C01C114D104E104F10401F1BA
:102AC0000E945A1A0E942815DC01CB018819990925
:102AD000AA09BB09883E9340A105B10560F321E036
:102AE000C21AD108E108F10888EE880E83E0981E2A
:102AF000A11CB11CC114D104E104F10419F7DBCF0E
:102B0000FF90EF90DF90CF90BF90AF909F908F900D
:102B10000895789484B5826084BD84B5816084BD55
:102B200085B5826085BD85B5816085BDEEE6F0E046
:102B3000808181608083E1E8F0E0108280818260A2
:102B40008083808181608083E0E8F0E08081816023
:102B50008083E1EBF0E0808184608083E0EBF0E053
:102B6000808181608083EAE7F0E0808184608083F7
:102B700080818260808380818160808380818068A1
:102B800080831092C1000895833081F028F4813051
:102B900099F08230A1F008958730A9F08830B9F01B
:102BA0008430D1F4809180008F7D03C080918000BB
:102BB0008F7780938000089584B58F7702C084B5A5
:102BC0008F7D84BD08958091B0008F7703C0809180
:102BD000B0008F7D8093B0000895CF93DF9390E095
:102BE000FC01ED5CFE4F2491FC01E95BFE4F8491FA
:102BF000882361F190E0880F991FFC01E159FE4F95
:102C0000C591D491FC01EB59FE4FA591B49161118E
:102C100009C09FB7F8948881209582238883EC911E
:102C20002E230BC0623061F49FB7F8943881822F55
:102C3000809583238883EC912E2B2C939FBF06C015
:102C40008FB7F894E8812E2B28838FBFDF91CF9127
:102C500008951F93CF93DF93282F30E0F901E15EB1
:102C6000FE4F8491F901ED5CFE4FD491F901E95BCF
:102C7000FE4FC491CC23C9F0162F81110E94C415B8
:102C8000EC2FF0E0EE0FFF1FEB59FE4FA591B49132
:102C90008FB7F894111105C09C91ED2FE095E923B1
:102CA00002C0EC91ED2BEC938FBFDF91CF911F9180
:102CB0000895CF93DF93282F30E0F901E15EFE4FB6
:102CC0008491F901ED5CFE4FD491F901E95BFE4F6F
:102CD000C491CC2391F081110E94C415EC2FF0E037
:102CE000EE0FFF1FE55AFE4FA591B491EC91ED2335
:102CF00081E090E021F480E002C080E090E0DF918C
:102D0000CF910895FC01918D228D892F90E0805CF8
:102D10009F4F821B91098F7399270895FC01918D14
:102D2000828D981731F0828DE80FF11D858D90E02E
:102D300008958FEF9FEF0895FC01918D828D981774
:102D400061F0828DDF01A80FB11D5D968C91928D8F
:102D50009F5F9F73928F90E008958FEF9FEF08958C
:102D600085E098E1892B49F080E090E0892B29F0FB
:102D70000E94051881110C9400000895FC01848DB7
:102D8000DF01A80FB11DA35ABF4F2C91848D90E095
:102D900001968F739927848FA689B7892C93A08970
:102DA000B1898C9180648C93938D848D981306C027
:102DB0000288F389E02D80818F7D80830895CF93F1
:102DC000DF93EC01888D8823C9F0EA89FB89808133
:102DD00085FD05C0A889B9898C9186FD0FC00FB605
:102DE00007FCF5CF808185FFF2CFA889B9898C9146
:102DF00085FFEDCFCE010E94BE16E7CFDF91CF91C8
:102E00000895EF92FF920F931F93CF93DF93EC01FE
:102E100081E0888F9B8D8C8D981305C0E889F98996
:102E2000808185FD24C0F62E0B8D10E00F5F1F4FB3
:102E30000F731127E02E8C8DE8120CC00FB607FC23
:102E4000FACFE889F989808185FFF5CFCE010E940C
:102E5000BE16F1CF8B8DFE01E80FF11DE35AFF4F37
:102E6000F0820B8FEA89FB898081806207C0EE893E
:102E7000FF896083E889F98980818064808381E0AB
:102E800090E0DF91CF911F910F91FF90EF90089507
:102E9000CF92DF92EF92FF921F93CF93DF93EC01DB
:102EA0006A017B01122FE889F98982E0808341154C
:102EB000514E61057105B1F060E079E08DE390E07D
:102EC000A70196010E940B1CDA01C9010197A10913
:102ED000B109B695A79597958795AC01411580E105
:102EE0005807A8F0E889F989108260E874E88EE153
:102EF00090E0A70196010E940B1CBA01A901415064
:102F00005109610971097695679557954795EC8543
:102F1000FD855083EE85FF854083188EEC89FD8901
:102F20001083EA89FB89808180618083EA89FB893B
:102F3000808188608083EA89FB89808180688083C2
:102F4000EA89FB8980818F7D8083DF91CF911F91FA
:102F5000FF90EF90DF90CF9008951F920F920FB6E1
:102F60000F9211242F938F939F93EF93FF93E091F0
:102F70000B04F0910C048081E0911104F091120493
:102F800082FD12C09081809114048F5F8F73209115
:102F90001504821751F0E0911404F0E0E550FC4F65
:102FA000958F8093140401C08081FF91EF919F91D0
:102FB0008F912F910F900FBE0F901F9018951F9219
:102FC0000F920FB60F9211242F933F934F935F935D
:102FD0006F937F938F939F93AF93BF93EF93FF93E1
:102FE0008BEF93E00E94BE16FF91EF91BF91AF91DE
:102FF0009F918F917F916F915F914F913F912F9111
:103000000F900FBE0F901F9018958BEF93E00E94CA
:10301000821621E0892B09F420E0822F0895EBEF3E
:10302000F3E01382128288EE93E0A0E0B0E08483A4
:103030009583A683B78381E892E09183808385ECB2
:1030400090E09587848784EC90E09787868780EC72
:1030500090E0918B808B81EC90E0938B828B82EC63
:1030600090E0958B848B86EC90E0978B868B118E0D
:10307000128E138E148E0895CF92DF92EF92FF92EC
:103080000F931F93CF93DF936C017A018B01C0E004
:10309000D0E0CE15DF0589F0D8016D918D01D60104
:1030A000ED91FC910190F081E02DC6010995892BED
:1030B00011F47E0102C02196ECCFC701DF91CF91C0
:1030C0001F910F91FF90EF90DF90CF9008956115C1
:1030D000710579F0FB0101900020E9F73197AF010C
:1030E000461B570BDC01ED91FC910280F381E02D32
:1030F000099480E090E00895EF92FF920F931F9360
:10310000CF93DF938C017B01C0E0D0E0F701EC0F9F
:10311000FD1F6491662361F0D801ED91FC9101904F
:10312000F081E02DC8010995892B11F02196EECF91
:10313000CE01DF91CF911F910F91FF90EF900895F5
:103140000C946718DC01ED91FC910190F081E02D69
:1031500009946DE872E00C9467180F931F93CF9356
:10316000DF93EC010E947C188C01CE010E94A9180B
:10317000800F911FDF91CF911F910F9108950F93B1
:103180001F93CF93DF93EC010E9467188C01CE014F
:103190000E94A918800F911FDF91CF911F910F916D
:1031A00008954F925F926F927F92EF92FF920F93EA
:1031B0001F93CF93DF93CDB7DEB7A1970FB6F894E7
:1031C000DEBF0FBECDBF7C01FA01CB0119A22230B8
:1031D00008F42AE08E010F5D1F4F422E512C612C06
:1031E000712CBF01A30192010E940B1CF901CA01BD
:1031F000015011096A3014F4605D01C0695CD801A6
:103200006C93232B242B252B61F7B801C7010E9457
:103210006718A1960FB6F894DEBF0FBECDBFDF9141
:10322000CF911F910F91FF90EF907F906F905F90E3
:103230004F900895CF92DF92EF92FF920F931F93DA
:10324000CF93DF93EC016A017B012115310579F4FD
:10325000E881F9810190F081E02D642FDF91CF9119
:103260001F910F91FF90EF90DF90CF9009942A303B
:103270003105E9F477FF1AC06DE20E94A2188C01B3
:1032800044275527BA014C195D096E097F092AE0C8
:10329000CE010E94D118800F911FDF91CF911F9115
:1032A0000F91FF90EF90DF90CF9008952AE0B70143
:1032B000A601CE01DF91CF911F910F91FF90EF906A
:1032C000DF90CF900C94D1189A01AB01770F660B69
:1032D000770B0C941A192115310541F4DC01ED919D
:1032E000FC910190F081E02D642F09940C94D11889
:1032F0009A01462F50E060E070E00C946B190F9338
:103300001F93CF93DF93EC019A01462F50E060E0CA
:1033100070E00E946B198C01CE010E94A918800FE9
:10332000911FDF91CF911F910F9108950F931F93DC
:10333000CF93DF93EC010E946B198C01CE010E94A8
:10334000A918800F911FDF91CF911F910F910895C0
:10335000FC01808191810C94DC1CCF93DF93EC0104
:1033600088819981009711F00E94DC1C19821882D3
:103370001D821C821B821A82DF91CF9108950F93C8
:103380001F93CF93DF93EC018B016F5F7F4F888199
:1033900099810E94741D009731F0998388831B8363
:1033A0000A8381E001C080E0DF91CF911F910F91EE
:1033B0000895CF93DF93EC0188819981892B29F0BF
:1033C0008A819B818617970760F4CE010E94BF19FE
:1033D000882341F08C819D81892B19F4E881F98142
:1033E000108281E0DF91CF910895EF92FF920F93C9
:1033F0001F93CF93DF93EC017B018A01BA010E94F6
:10340000D919811104C0CE010E94AD1907C01D83D6
:103410000C83B701888199810E94571ECE01DF91EC
:10342000CF911F910F91FF90EF900895FC011182B1
:10343000108213821282158214826115710551F077
:10344000FB0101900020E9F73197AF01461B570BB4
:103450000C94F5190895FC0124813581232B31F456
:1034600021E061157105A1F0FB0108C0FC0180811C
:1034700091816115710531F421E0FC01808188237F
:1034800039F005C00E944E1E21E0892B09F020E092
:10349000822F089508950E9489150E944A1A0E9459
:1034A000F800C0EBD6E10E94DB012097E1F30E9417
:1034B000B016F9CF08950E946F1A0C94501B0E9409
:1034C000491B58F00E94421B40F029F45F3F29F04D
:1034D0000C94391B51110C94841B0C943F1B0E94BB
:1034E000611B68F39923B1F3552391F3951B550B99
:1034F000BB27AA2762177307840738F09F5F5F4FC7
:10350000220F331F441FAA1FA9F335D00E2E3AF005
:10351000E0E832D091505040E695001CCAF72BD01D
:10352000FE2F29D0660F771F881FBB1F261737076E
:103530004807AB07B0E809F0BB0B802DBF01FF27A0
:1035400093585F4F3AF09E3F510578F00C94391B29
:103550000C94841B5F3FE4F3983ED4F386957795F3
:103560006795B795F7959F5FC9F7880F911D969559
:10357000879597F90895E1E0660F771F881FBB1FB5
:10358000621773078407BA0720F0621B730B840B62
:10359000BA0BEE1F88F7E09508950E94691B88F02A
:1035A0009F5798F0B92F9927B751B0F0E1F0660F07
:1035B000771F881F991F1AF0BA95C9F714C0B13048
:1035C00091F00E94831BB1E008950C94831B672F38
:1035D000782F8827B85F39F0B93FCCF38695779577
:1035E0006795B395D9F73EF4909580957095619560
:1035F0007F4F8F4F9F4F0895E89409C097FB3EF48B
:1036000090958095709561957F4F8F4F9F4F99232F
:10361000A9F0F92F96E9BB279395F69587957795AD
:103620006795B795F111F8CFFAF4BB0F11F460FF6D
:103630001BC06F5F7F4F8F4F9F4F16C0882311F0C5
:1036400096E911C0772321F09EE8872F762F05C0D9
:10365000662371F096E8862F70E060E02AF09A9574
:10366000660F771F881FDAF7880F9695879597F969
:10367000089597F99F6780E870E060E008959FEFF4
:1036800080EC089500240A941616170618060906F9
:10369000089500240A9412161306140605060895C8
:1036A000092E0394000C11F4882352F0BB0F40F450
:1036B000BF2B11F460FF04C06F5F7F4F8F4F9F4F90
:1036C000089557FD9058440F551F59F05F3F71F012
:1036D0004795880F97FB991F61F09F3F79F0879579
:1036E0000895121613061406551FF2CF4695F1DF02
:1036F00008C0161617061806991FF1CF8695710592
:10370000610508940895E894BB2766277727CB01C5
:1037100097F908950E949D1B0C94501B0E94421B18
:1037200038F00E94491B20F0952311F00C94391BAE
:103730000C943F1B11240C94841B0E94611B70F39A
:10374000959FC1F3950F50E0551F629FF001729F46
:10375000BB27F00DB11D639FAA27F00DB11DAA1F55
:10376000649F6627B00DA11D661F829F2227B00DA2
:10377000A11D621F739FB00DA11D621F839FA00D2D
:10378000611D221F749F3327A00D611D231F849F7D
:10379000600D211D822F762F6A2F11249F575040D4
:1037A0009AF0F1F088234AF0EE0FFF1FBB1F661F4F
:1037B000771F881F91505040A9F79E3F510580F018
:1037C0000C94391B0C94841B5F3FE4F3983ED4F3B4
:1037D000869577956795B795F795E7959F5FC1F7BC
:1037E000FE2B880F911D9695879597F9089597FB65
:1037F000072E16F4009407D077FD09D00E942D1CE7
:1038000007FC05D03EF4909581959F4F08957095E3
:1038100061957F4F0895A1E21A2EAA1BBB1BFD01E3
:103820000DC0AA1FBB1FEE1FFF1FA217B307E4079F
:10383000F50720F0A21BB30BE40BF50B661F771FF7
:10384000881F991F1A9469F76095709580959095D7
:103850009B01AC01BD01CF010895AA1BBB1B51E127
:1038600007C0AA1FBB1FA617B70710F0A61BB70BF0
:10387000881F991F5A95A9F780959095BC01CD0195
:103880000895EE0FFF1F0590F491E02D0994CF935A
:10389000DF938230910510F482E090E0E0919A0489
:1038A000F0919B0420E030E0C0E0D0E0309711F1CF
:1038B0004081518148175907C0F04817590761F4F2
:1038C00082819381209719F09B838A832BC09093E8
:1038D0009B0480939A0426C02115310519F04217E4
:1038E000530718F49A01BE01DF01EF010280F38152
:1038F000E02DDCCF2115310509F1281B390B2430CF
:10390000310590F412968D919C9113976115710574
:1039100021F0FB019383828304C090939B048093E6
:103920009A04FD01329644C0FD01E20FF31F81931A
:103930009193225031092D933C933AC020919804E1
:1039400030919904232B41F420910201309103011D
:103950003093990420939804209100013091010143
:103960002115310541F42DB73EB740910401509126
:103970000501241B350BE0919804F0919904E2179E
:10398000F307A0F42E1B3F0B2817390778F0AC0182
:103990004E5F5F4F2417350748F04E0F5F1F50935F
:1039A0009904409398048193919302C0E0E0F0E081
:1039B000CF01DF91CF9108950F931F93CF93DF93A2
:1039C000009709F48CC0FC01329713821282009197
:1039D0009A0410919B040115110581F42081318115
:1039E000820F931F2091980430919904281739076A
:1039F00079F5F0939904E093980471C0D80140E000
:103A000050E0AE17BF0750F412962D913C911397DA
:103A1000AD012115310509F1D901F3CF9D01DA017D
:103A20003383228360817181860F971F82179307EA
:103A300069F4EC0128813981260F371F2E5F3F4F33
:103A4000318320838A819B8193838283452B29F450
:103A5000F0939B04E0939A0442C01396FC93EE9378
:103A60001297ED01499159919E01240F351FE217DC
:103A7000F30771F480819181840F951F029611964E
:103A80009C938E938281938113969C938E9312972D
:103A9000E0E0F0E0D80112968D919C911397009789
:103AA00019F0F8018C01F6CF8D919C9198012E5F51
:103AB0003F4F820F931F209198043091990428174B
:103AC000390769F4309729F410929B0410929A04F4
:103AD00002C0138212821093990400939804DF911C
:103AE000CF911F910F910895A0E0B0E0EAE7FDE1CA
:103AF0000C944C21EC01009721F4CB010E94471C4F
:103B0000B8C0FC01E60FF71F9C0122503109E217F3
:103B1000F30708F4ACC0D9010D911C911197061759
:103B20001707B0F00530110508F49FC0C8010497CD
:103B30008617970708F499C002501109061B170B46
:103B4000019311936D937C93CF010E94DC1C8DC077
:103B50005B01A01AB10A4C01800E911EA0919A043B
:103B6000B0919B0440E050E0E12CF12C109709F457
:103B70004AC0A815B905D1F56D907C9011976301E5
:103B800082E0C80ED11CCA14DB0480F1A3014A19DB
:103B90005B096A0182E0C80ED11C1296BC90129794
:103BA0001396AC91B5E0CB16D10440F0B282A3835A
:103BB00051834083D9016D937C930AC00E5F1F4FE0
:103BC000C301800F911FF90191838083EB2DFA2FA0
:103BD000E114F10431F0D7011396FC93EE931297A0
:103BE00044C0F0939B04E0939A043FC08D919C9154
:103BF00011974817590708F4AC017D0112960D90F2
:103C0000BC91A02DB3CF8091980490919904881510
:103C10009905E1F446175707C8F480910001909187
:103C20000101009741F48DB79EB740910401509176
:103C30000501841B950BE817F907C8F4F093990464
:103C4000E0939804F901718360830FC0CB010E9457
:103C5000471C7C01009759F0A801BE010E943E1E3E
:103C6000CE010E94DC1CC70104C0CE0102C080E06E
:103C700090E0CDB7DEB7EEE00C946821FB01DC01EB
:103C800002C001900D9241505040D8F70895DC01D8
:103C900001C06D9341505040E0F70895FB01DC01F5
:103CA0008D91019080190110D9F3990B0895FB01B2
:103CB000DC0101900D920020E1F70895FB01DC0189
:103CC0004150504048F001900D920020C9F701C0CA
:103CD0001D9241505040E0F70895AEE0B0E0E3E7B8
:103CE000FEE10C9456210D891E8986E08C831A838F
:103CF00009838FEF9FE79E838D83AE01475E5F4F01
:103D00006F89788DCE0101960E94901E2F81388593
:103D1000F801E20FF31F10822E96E4E00C9472215A
:103D2000ACE0B0E0E6E9FEE10C9448217C016B01D7
:103D30008A01FC0117821682838181FFBDC1CE01F9
:103D400001964C01F7019381F60193FD859193FF54
:103D500081916F01882309F4ABC1853239F493FD59
:103D6000859193FF81916F01853229F4B70190E02D
:103D70000E947820E7CF512C312C20E02032A0F493
:103D80008B3269F030F4803259F0833269F420616B
:103D90002CC08D3239F0803339F4216026C0226086
:103DA000246023C0286021C027FD27C030ED380FD4
:103DB0003A3078F426FF06C0FAE05F9E300D1124F9
:103DC000532E13C08AE0389E300D1124332E20620A
:103DD0000CC08E3221F426FD6BC1206406C08C36E7
:103DE00011F4206802C0883641F4F60193FD8591F4
:103DF00093FF81916F018111C1CF982F9F7D9554C1
:103E0000933028F40C5F1F4FFFE3F9830DC0833616
:103E100031F0833771F0833509F05BC022C0F801BF
:103E2000808189830E5F1F4F44244394512C540199
:103E300015C03801F2E06F0E711CF801A080B1804E
:103E400026FF03C0652D70E002C06FEF7FEFC50154
:103E50002C870E946D202C0183012C852F77222E28
:103E600017C03801F2E06F0E711CF801A080B1801C
:103E700026FF03C0652D70E002C06FEF7FEFC50124
:103E80002C870E9462202C012C852068222E830121
:103E900023FC1BC0832D90E048165906B0F4B701EF
:103EA00080E290E00E9478203A94F4CFF50127FC5C
:103EB000859127FE81915F01B70190E00E947820F3
:103EC00031103A94F1E04F1A51084114510471F73E
:103ED000E5C0843611F0893639F5F80127FF07C0AF
:103EE00060817181828193810C5F1F4F08C0608166
:103EF0007181072E000C880B990B0E5F1F4F2F76D8
:103F0000722E97FF09C090958095709561957F4FAF
:103F10008F4F9F4F2068722E2AE030E0A4010E944C
:103F2000B020A82EA81844C0853729F42F7EB22EC1
:103F30002AE030E025C0F22FF97FBF2E8F36C1F086
:103F400018F4883579F0B4C0803719F0883721F03B
:103F5000AFC02F2F2061B22EB4FE0DC08B2D846018
:103F6000B82E09C024FF0AC09F2F9660B92E06C044
:103F700028E030E005C020E130E002C020E132E07E
:103F8000F801B7FE07C060817181828193810C5F67
:103F90001F4F06C06081718180E090E00E5F1F4F6F
:103FA000A4010E94B020A82EA818FB2DFF777F2E19
:103FB00076FE0BC0372D3E7FA51450F474FE0AC068
:103FC00072FC08C0372D3E7E05C0BA2C372D03C0C9
:103FD000BA2C01C0B52C34FF0DC0FE01EA0DF11D55
:103FE0008081803311F4397E09C032FF06C0B3945A
:103FF000B39404C0832F867809F0B39433FD13C0C3
:1040000030FF06C05A2CB31418F4530C5B18B32CB1
:10401000B31468F4B70180E290E03C870E947820F6
:10402000B3943C85F5CFB31410F43B1801C0312C88
:1040300034FF12C0B70180E390E03C870E947820F3
:104040003C8532FF17C031FD03C088E790E002C015
:1040500088E590E0B7010CC0832F867859F031FFD6
:1040600002C08BE201C080E237FD8DE2B70190E033
:104070000E947820A51438F4B70180E390E00E94F4
:1040800078205A94F7CFAA94F401EA0DF11D8081AB
:10409000B70190E00E947820A110F5CF332009F4F9
:1040A00051CEB70180E290E00E9478203A94F6CF9A
:1040B000F7018681978102C08FEF9FEF2C96E2E196
:1040C0000C946421FC010590615070400110D8F7F8
:1040D000809590958E0F9F1F0895FC016150704050
:1040E00001900110D8F7809590958E0F9F1F08952D
:1040F0000F931F93CF93DF93FB01238121FD03C017
:104100008FEF9FEF28C022FF16C046815781248180
:1041100035814217530744F4A081B1819D012F5F7F
:104120003F4F318320838C93268137812F5F3F4F10
:104130003783268310C0EB01092F182F0084F185E7
:10414000E02D0995892BE1F68E819F8101969F8351
:104150008E83812F902FDF91CF911F910F91089522
:10416000FA01AA27283051F1203181F1E8946F93A8
:104170006E7F6E5F7F4F8F4F9F4FAF4FB1E03ED04E
:10418000B4E03CD0670F781F891F9A1FA11D680FEC
:10419000791F8A1F911DA11D6A0F711D811D911D1F
:1041A000A11D20D009F468943F912AE0269F112494
:1041B0003019305D3193DEF6CF010895462F4770F8
:1041C000405D4193B3E00FD0C9F7F6CF462F4F7053
:1041D000405D4A3318F0495D31FD4052419302D0B1
:1041E000A9F7EACFB4E0A695979587957795679557
:1041F000BA95C9F700976105710508959B01AC0157
:104200000A2E06945795479537952795BA95C9F77D
:10421000620F731F841F951FA01D0895DC01CB0141
:10422000FC01F999FECF06C0F2BDE1BDF89A3196C6
:1042300000B40D9241505040B8F70895F999FECF5F
:1042400092BD81BDF89A992780B50895DC01A40F2D
:10425000B51F4150504048F0CB01840F951F2E915F
:104260000E94372141505040D0F70895262FF999E8
:10427000FECF92BD81BDF89A019700B4021639F0C5
:104280001FBA20BD0FB6F894FA9AF99A0FBE089596
:104290002F923F924F925F926F927F928F929F9256
:1042A000AF92BF92CF92DF92EF92FF920F931F9344
:1042B000CF93DF93CDB7DEB7CA1BDB0B0FB6F894F5
:1042C000DEBF0FBECDBF09942A88398848885F8435
:1042D0006E847D848C849B84AA84B984C884DF80A6
:1042E000EE80FD800C811B81AA81B981CE0FD11D8A
:1042F0000FB6F894DEBF0FBECDBFED010895F89460
:02430000FFCFED
:1043020000009C04800001AE03B5036314631455DE
:104312004E4C4F434B0053504920466C617368200A
:10432200496E6974204F4B210053504920466C61FD
:10433200736820496E6974204641494C2100312E30
:1043420031004761726167654E6F646500496E694D
:104352007420646F6E65006D7367547970653D00FB
:1043620076616C7565547970653D005D2000202092
:10437200205B52585F525353493A005D00000000DF
:10438200001A0A4305D004690ACB0ADD066809BE91
:1043920004F7067C077406EB0A0505F204464C583E
:1043A2003F4E4F4B3A4E4F464C41534800464C58B5
:1043B2003F4F4B00464C583F00464C583F454F46F6
:1043C20000464C583A25753A00464C58494D473AF2
:1043D20000464C583A25753A4F4B00464C583F4ED2
:1043E2004F4B3A4845583E33316B0054696D656F07
:1043F20075742F4572726F722C2065726173696ECB
:1044020067207772697474656E2064617461202E0E
:104412002E2E2000436F6E6669672065786973747B
:10442200732E2052656164696E672E2E2E004465DC
:104432006661756C7420436F6E6669672E007361E6
:104442006D706C65456E63727970744B657900535B
:104452006176696E672E2E2E00300053656E646998
:104462006E67206E6574776F726B20646174610091
:104472004578697420696E636C756465000000009C
:104482000001173C1882169C168E16DF160D0A00C4
:0C4492006E616E00696E66006F76660059
:00000001FF
