:100000000C94E1000C9449140C9470140C940901A4
:100010000C9409010C9409010C9409010C94090138
:100020000C9409010C9409010C9409010C94090128
:100030000C9409010C9409010C9409010C94090118
:100040000C9497140C9409010C9472170C94A41737
:100050000C9409010C9409010C9409010C940901F8
:100060000C9409010C94090154696D656F75742035
:1000700077616974696E6720666F72207061636B67
:1000800065742041434B2C2061626F7274696E6706
:1000900020464C415348206F7065726174696F6EE1
:1000A000202E2E2E00203E2000524641434B203E63
:1000B000200052465458203E200054696D656F75EB
:1000C000742067657474696E6720464C41534820FC
:1000D000696D6167652066726F6D205345524941B5
:1000E0004C2C2061626F7274696E672E2E00464C34
:1000F000583A494E560048616E647368616B6520DA
:100100006661696C00464C583F4E4F4B00464C416F
:10011000534820494D47205452414E534D49535363
:10012000494F4E204641494C00464C4153482049D6
:100130004D47205452414E534D495353494F4E2041
:100140005355434345535300464C583F4F4B000AC9
:10015000464C583F4F4B00000000080002010000D1
:100160000304070000000000000000010204081062
:10017000204080010204081020010204081020041D
:10018000040404040404040202020202020303033E
:1001900003030300000000230026002900000000E4
:1001A00000250028002B0000000000240027002A62
:1001B000006364696E6F70737578585B0000D502D8
:1001C000D41711241FBECFEFD8E0DEBFCDBF12E0A1
:1001D000A0E0B1E0EEEEF9E402C005900D92A03986
:1001E000B107D9F724E0A0E9B2E001C01D92A6371B
:1001F000B207E1F710E0C1EED0E004C02197FE01A4
:100200000E94F81BCF3DD107C9F70E94021A0C9437
:10021000F5240C94000026E040E052EC61E070E030
:1002200085ED93E00E940D1721E041E060E081ED53
:1002300092E00E949A0F81E892E09F938F930E9430
:10024000F30E8FE091E09F938F930E94F30E87E36C
:1002500091E09F938F930E94F30E0F900F900F9059
:100260000F900F900F900895CF92EF92FF920F93FF
:100270001F93CF93DF93CDB7DEB7C755D1090FB624
:10028000F894DEBF0FBECDBF84E190E00E941A0F4C
:100290004AE050E060E070E085ED93E00E942319B1
:1002A00020E430E0AE014F5F5F4F6AE085ED93E000
:1002B0000E942919182F082FE1E0F0E0EC0FFD1F34
:1002C000E80FF11D108240E050E0BA0185ED93E0A7
:1002D0000E942319BE016F5F7F4FCE018E5A9F4F40
:1002E0000E94CB19112309F4FBC0143009F059C046
:1002F0008981863409F055C08A818C3409F051C057
:100300008B81883509F04DC08C818F3309F049C04D
:1003100020919002211103C069E471E075C082E769
:1003200091E024969FAF8EAF24978091320325965B
:100330008FAF25978091330326968FAF26978091B4
:10034000340327968FAF27978091350328968FAF78
:1003500028978091360329968FAF2997809137038C
:100360002A968FAF2A97809138032B968FAF2B97C1
:10037000809139032C968FAF2C9780913A032D965C
:100380008FAF2D97C12C82E3E82EF12C08EB1BE0F8
:10039000AE014E5B5F4F64E0CE0101960E942C0ED1
:1003A00045C01450133008F041C089818435F1F5FF
:1003B0008A818F34D9F58B818A33C1F5FE01349659
:1003C00093E010E0219180ED820F8A3010F5110F3B
:1003D000812F880F880F180F1053120F9F5F9017EF
:1003E00088F31123B1F0109390026DE471E085ED74
:1003F00093E00E9465184AE050E0612F85ED93E09C
:100400000E94EC1868EC71E085ED93E00E9484187E
:100410000DC0BE016F5F7F4F85ED93E00E946518B0
:1004200061E571E085ED93E00E9465188E010E5B39
:100430001F4F66E571E0C8010E94CB19B801CE01DB
:100440008E5A9F4F0E94FD19F82EC8010E945D1917
:1004500089818A32D9F59A819936B1F420E040E059
:1004600060910B0381ED92E00E949A0F81E08093EE
:10047000D4020E94E1146093D5027093D602809357
:10048000D7029093D8022CC0903701F5DE01139665
:10049000F80180E1800F9D9191938E13FCCFB801FC
:1004A00081ED92E00E945D0F81ED92E00E946A0F63
:1004B000B80180E393E00E943D0688E591E09F93B8
:1004C0008F930E94F30E0F900F900AC0FF2041F00F
:1004D00041E0BE016F5F7F4F81ED92E00E94C2124A
:1004E000CE018E5A9F4F0E945D19C95ADF4F0FB639
:1004F000F894DEBF0FBECDBFDF91CF911F910F915A
:10050000FF90EF90CF900895CF93DF93EC014AE0F6
:1005100050E0688185ED93E00E94EC1866E571E09B
:1005200085ED93E00E9465184AE050E0698185ED11
:1005300093E00E94EC1866E571E085ED93E00E947F
:1005400065184AE050E06A8185ED93E00E94EC185E
:1005500066E571E085ED93E00E9465184AE050E0A1
:100560006B8185ED93E00E94EC1866E571E085ED06
:1005700093E00E9465184AE050E06C8185ED93E0BD
:100580000E94EC1866E571E085ED93E00E94651825
:100590002596699185ED93E016161CF40E94671864
:1005A000F8CFDF91CF910C946E18E0E3F3E082E78F
:1005B00091E0918380838AE0828382E08383148246
:1005C00081E08093460316828FE18783108640E0A6
:1005D000BF0181ED92E00C94310FAF92BF92CF92A8
:1005E000DF92EF92FF920F9380E393E00E94590312
:1005F0008823B1F1C09045038091410320913E03CF
:1006000030913F034091430360914403D12C01E0BA
:10061000811101C000E050E070E081E9A82E82E085
:10062000B82E97E4E92E93E0F92E81ED92E00E9436
:1006300070106C0180914103882339F040E062E83A
:1006400072E080E393E00E94F908CA94CD2841F457
:1006500081E992E00E94840284E190E00E941A0FF6
:1006600085ED93E00E944716892B49F00F91FF908A
:10067000EF90DF90CF90BF90AF900C9434010F912A
:10068000FF90EF90DF90CF90BF90AF9008950895C6
:1006900081E080933D0380913B0390913C03DC011A
:1006A000ED91FC910484F585E02D099510923D03B0
:1006B0000895F89420914603233021F420914203B9
:1006C00021110FC020914603233011F4789407C004
:1006D000DC01ED91FC910288F389E02D099580E021
:1006E0000895DC01ED91FC910488F589E02D61E02D
:1006F000099581E00895CF93DF93EC0161E08A8151
:100700000E94EE1589858CBD8A858DBD80913D0343
:10071000811101C07894DF91CF910895FC01F89484
:100720008CB581878DB582878CB5837F8CBD8CB568
:100730008F7D8CBD8CB58C7F8CBD8DB58E7F8DBD36
:1007400060E082810C94EE158EBD00000DB407FEB2
:10075000FDCF8EB50895DC01ED91FC910488F589FB
:10076000E02D60E00994CF93DF931F92CDB7DEB701
:10077000DC01ED91FC910480F581E02D6983099500
:100780006981882361F080914403861711F06F3FDF
:1007900029F49091400381E0911101C080E00F9015
:1007A000DF91CF9108952F923F924F925F926F9277
:1007B0007F928F929F92AF92BF92CF92DF92EF92F1
:1007C000FF920F931F93CF93DF936C01D62F3A01C3
:1007D000F22E102FC0E08E2C912CA12CB12CD60122
:1007E000ED91FC910190F081E02D01E02F2DA3010E
:1007F0006D2FC60109950E94E1141B012C010E9476
:10080000E114DC01CB0182199309A409B50988150B
:100810009905AA05BB0538F46D2FC6010E94B303E4
:10082000882369F304C0CF5F1C17C8F680E0DF910E
:10083000CF911F910F91FF90EF90DF90CF90BF90DD
:10084000AF909F908F907F906F905F904F903F9070
:100850002F900895EF92FF921F93CF93DF931F92F3
:10086000CDB7DEB77C01DC01ED91FC91008CF18D00
:10087000E02D698309956981862F8F770E94A403F3
:1008800080E00E94A403182FD701ED91FC91028C07
:10089000F38DE02DC7010995812F0F90DF91CF9146
:1008A0001F91FF90EF9008950F931F93CF93DF93C5
:1008B0008C0167E00E942A04D82F68E0C8010E94DA
:1008C0002A04C82F69E0C8010E942A044D2F50E075
:1008D00060E070E0BA0155274427480F511D611DA3
:1008E000711D8C2F90E0982F88278A019B01080F9B
:1008F000191F211D311DC901B8010E94B31A20E042
:1009000034E244E752E40E94411B0E94841ADF91C2
:10091000CF911F910F9108950F931F93CF93DF9362
:1009200000D0CDB7DEB78C01DC01ED91FC91008CDD
:10093000F18DE02D4A83698309956981862F80684E
:100940000E94A4034A81842F0E94A403D801ED9140
:10095000FC91028CF38DE02DC8010F900F90DF9178
:10096000CF911F910F910994CF92DF92EF92FF9256
:100970001F93CF93DF93EC016A017B011091460333
:10098000143039F4E881F9810488F589E02D63E0B9
:100990000995C701B6010E94B31A20E034E244E78A
:1009A00052E40E94121A0E94841A6B017C01A70172
:1009B0006627772767E0CE010E948C0477276F2D8A
:1009C0005E2D4D2D68E0CE010E948C044C2D69E017
:1009D000CE010E948C04133041F4E881F98104882F
:1009E000F589E02D62E0CE010995E881F98104885E
:1009F000F589E02D612FCE01DF91CF911F91FF90FE
:100A0000EF90DF90CF9009941F93CF93DF932091C5
:100A10004603621709F45DC0162FEC016230E9F15C
:100A200068F4662309F440C0613009F052C061E007
:100A30000E942A04837E482F44603BC06330B9F093
:100A4000643009F046C061E00E942A04837E482F8A
:100A50004C6061E0CE010E948C048885882369F196
:100A6000E881F9810688F789E02D61E013C061E033
:100A70000E942A04837E482F406161E0CE010E94DB
:100A80008C0488858823C9F0E881F9810688F78974
:100A9000E02D60E0CE01099510C061E00E942A04BB
:100AA000837E482F486005C061E00E942A04482FD9
:100AB000437E61E0CE010E948C0480914603811147
:100AC00006C067E2CE010E942A0487FFF6CF10938A
:100AD0004603DF91CF911F910895CF93DF93EC01EF
:100AE000603208F06FE16F838885882311F0669586
:100AF0006F8361E1CE010E942A04807E9F81482F8E
:100B0000492B61E1CE01DF91CF910C948C04CF92FF
:100B1000DF92EF92FF920F931F93CF93DF93EC013D
:100B2000F62ED42EC52E122FE881F9810488F5897E
:100B3000E02D61E0099567E2CE010E942A0487FF5B
:100B4000FACF40E065E2CE010E948C041E3308F02B
:100B50001DE3E11004C0002321F000E403C000E81D
:100B600001C000E0E881F981008CF18DE02DCE011B
:100B7000099580E80E94A40383E0810F0E94A403EA
:100B80008F2D0E94A4038D810E94A403802F0E94B8
:100B9000A4030D2DED2CFC2C8E2D801B811730F421
:100BA000F70181917F010E94A403F6CFE881F981CA
:100BB000028CF38DE02DCE010995E881F98104883E
:100BC000F589E02D64E0CE0109950E94E1146B01E6
:100BD0007C018B810E941E16892B81F0E881F981AE
:100BE0000488F589E02D61E0CE01DF91CF911F915E
:100BF0000F91FF90EF90DF90CF9009940E94E11445
:100C0000DC01CB018C199D09AE09BF09883E9340D8
:100C1000A105B105F0F2E2CFCF93DF93EC01109282
:100C20004503109244031092430310924203109222
:100C300041031092400310923F0310923E0368E27A
:100C40000E942A0482FF0AC06DE3CE010E942A049A
:100C5000482F44606DE3CE010E948C0440E465E2BD
:100C6000CE010E948C04E881F9810488F589E02D89
:100C700063E0CE01DF91CF910994CF92DF92EF92A2
:100C8000FF920F931F93CF93DF93EC018B01E881C9
:100C9000F9810488F589E02D61E0099501151105B8
:100CA000F1F0E881F981008CF18DE02DCE010995FC
:100CB0008EEB0E94A4037801680180E1C80ED11C6C
:100CC000F70181917F010E94A403EC14FD04C1F798
:100CD000E881F981028CF38DE02DCE0109956DE359
:100CE000CE010E942A048E7F41E0012B09F440E0EE
:100CF000482B6DE3CE01DF91CF911F910F91FF90B3
:100D0000EF90DF90CF900C948C048F929F92AF92D3
:100D1000BF92CF92DF92EF92FF920F931F93CF93E8
:100D2000DF93CDB7DEB7AE970FB6F894DEBF0FBE38
:100D3000CDBF8C01E42E8EE2AE014F5F5F4F6A01A2
:100D4000DA01E82F1D92EA95E9F791E0998334E002
:100D50003A8342E04B8393E09D834E833F8340E49C
:100D6000488735E039879A8796E09B8793E39C878D
:100D700037E03D8798E09F8799E0998B99E19B8BBD
:100D800092E49C8B55E25D8B4E8B46E24F8B388F05
:100D900038E2398F30E13A8F39E23B8F3CED3C8FBE
:100DA0008D8F88E88E8F8FE28F8F8DE288A380E30E
:100DB00089A337E33BA330E93CA338E33DA39EA3DB
:100DC0009CE39FA39FE898A79DE399A792E19AA728
:100DD0009FE69BA78CA78FEF8DA76F3131F06B3209
:100DE00031F0663531F084EE05C08EE403C08CE648
:100DF00001C089ED8E876F3121F06B3221F06635AD
:100E000021F080EC03C080E401C080E0888B2AA33D
:100E100061E0D80112968C910E94EE1561E0F80114
:100E200082810E94B2150E94BD0E0E94E1144B0106
:100E30005C014AEA6FE2C8010E948C046FE2C801BB
:100E40000E942A048A3A61F00E94E114DC01CB017D
:100E500088199909AA09BB09C297A105B10548F3E8
:100E60000E94E1144B015C0145E56FE2C8010E945C
:100E70008C046FE2C8010E942A04853561F00E944B
:100E8000E114DC01CB0188199909AA09BB09C297B1
:100E9000A105B10548F3F12CF601EF0DF11DEF0DA1
:100EA000F11D60816F3F31F04181C8010E948C04C7
:100EB000F394F2CF60E070E0C8010E943D06D801D3
:100EC000ED91FC9111970084F185E02D18966C91BD
:100ED000C8010995D801ED91FC910488F589E02DB0
:100EE00061E0C80109950E94E1144B015C0167E2D1
:100EF000C8010E942A0487FD0CC00E94E114DC0195
:100F0000CB0188199909AA09BB09C297A105B105A6
:100F100070F30E94E114DC01CB0188199909AA0938
:100F2000BB09C297A105B10598F410923D0343E0B7
:100F300050E068E473E0F80184810E942914109362
:100F40003C0300933B03D8011596EC9281E001C06D
:100F500080E0AE960FB6F894DEBF0FBECDBFDF9136
:100F6000CF911F910F91FF90EF90DF90CF90BF90A6
:100F7000AF909F908F900895CF93DF93EC01611114
:100F80000DC064E2CE010E942A0490E09195819503
:100F9000910995958795DF91CF91089541E063E29E
:100FA0000E948C0463E2CE010E942A0481FFFACFE2
:100FB000E8CFCF93DF93209146032330A9F420910B
:100FC0004203211111C0EC0160E00E94BC07863A87
:100FD0009F4F54F4E881F9810488F589E02D61E0A0
:100FE000CE01099581E001C080E0DF91CF910895A5
:100FF000EF92FF921F93CF93DF93EC018091460312
:10100000833001F568E2CE010E942A0482FD28C0E7
:1010100019C0809145038D3330F4E0914503F0E031
:10102000E95BFC4F1082E881F981028CF38DE02DA1
:10103000CE010995E881F9810488F589E02D63E006
:10104000CE01099560E0CE010E94BC0790933F035A
:1010500080933E03DF91CF911F91FF90EF90089511
:10106000E881F9810488F589E02D61E0CE010995D8
:10107000E881F981008CF18DE02DCE01099580E0A9
:101080000E94A40380E00E94A40380934203809105
:1010900042038334D0F4809142038093420380E082
:1010A0000E94A403809343038E81811109C0909113
:1010B00043038D81981721F0809143038F3F39F4CA
:1010C00080914203833018F017C082E4E6CF10927B
:1010D0004203E881F981028CF38DE02DCE01099560
:1010E000E881F9810288F389E02DCE01DF91CF916B
:1010F0001F91FF90EF900994809142038350809359
:10110000450380E00E94A4038093440380E00E9492
:10111000A403982F907890934003982F9074909305
:101120004103E881F9810684F785E02D682FCE011F
:10113000099510E080914503181708F06ACFE12E59
:10114000F12C80E00E94A403F701E95BFC4F80834F
:101150001F5FF0CF8F929F92AF92BF92CF92DF929C
:10116000EF92FF920F931F93CF93DF93EC01162F13
:101170006A01F22E6DE30E942A04482F44606DE359
:10118000CE010E948C040E94E1144B015C01CE014F
:101190000E94D9078823C1F0E881F9810088F1898C
:1011A000E02DE12C2F2DA601612FCE010995DF91B5
:1011B000CF911F910F91FF90EF90DF90CF90BF9054
:1011C000AF909F908F9008950E94E114DC01CB01B5
:1011D00088199909AA09BB09883E9340A105B10560
:1011E000D8F6E881F9810480F581E02DCE010995DA
:1011F000CECF4F925F926F927F92AF92BF92CF927B
:10120000DF92EF92FF920F931F93CF93DF93EC0146
:101210005B01F42E1092410310914403C0903E03F1
:10122000D0903F036DE30E942A04482F44606DE391
:10123000CE010E948C040E94E1142B013C01CE01DE
:101240000E94D907882311F110934403E881F981A2
:101250000088F189E02DEE24E39400E02F2DA50114
:10126000612FCE010995D0923F03C0923E03DF91DA
:10127000CF911F910F91FF90EF90DF90CF90BF9093
:10128000AF907F906F905F904F9008950E94E1140F
:10129000DC01CB0184199509A609B709883E934062
:1012A000A105B10588F6E881F9810480F581E02D7A
:1012B000CE010995C4CFCF93DF93EC01688761110C
:1012C00002C04AE101C04FE063E1CE010E948C04FC
:1012D0008885882341F061E1CE010E942A048F7144
:1012E000482F406602C04F81406861E1CE01DF9126
:1012F000CF910C948C041F93CF93DF93EC01162FA6
:10130000611102C045E501C04DE56AE5CE010E94CC
:101310008C04111102C040E701C04CE76CE5CE011E
:10132000DF91CF911F910C948C04FC01DB0182E7CB
:1013300091E09183808312968C9112978283139609
:101340008C911397838314968C91149784831596AC
:101350008C911597858316968C9116978683179690
:101360008C911797878318968C9118978087199678
:101370008C91199781871A968C91828708950F9383
:101380001F93CF93DF93EC01062F142FA90160E088
:1013900070E085ED93E00E942319212F30E0AE012B
:1013A000602F85ED93E00E942919182FC80FD11DD9
:1013B000188240E050E0BA0185ED93E00E942319C5
:1013C000812FDF91CF911F910F9108954F925F92DE
:1013D0006F927F928F929F92AF92BF92CF92DF9245
:1013E000EF92FF920F931F93CF93DF93EC01162F91
:1013F000F42E4901D02ECE2C0E94E1142B013C0189
:10140000A12CB12C0E94E114DC01CB0184199509B7
:10141000A609B70988159905AA05BB0538F5F11085
:1014200004C024E045EA51E003C027E04AEA51E065
:10143000ED2C02E0612FCE010E94D303882311F32B
:10144000809145038630F0F2809147038634D1F6CF
:10145000809148038C34B1F680914903883591F628
:1014600080914A038F3371F681E009C0CC2031F0BE
:1014700066EF70E085ED93E00E94721880E0DF91E6
:10148000CF911F910F91FF90EF90DF90CF90BF9081
:10149000AF909F908F907F906F905F904F90089546
:1014A000282F082E000C330B813414F027533109F8
:1014B000822F8295807F613414F0675301C060539E
:1014C000860F08958F929F92AF92BF92CF92DF9234
:1014D000EF92FF920F931F93CF93DF936C3008F43A
:1014E0004BC0262F2170E22E60FD46C0C62F8C0116
:1014F0005C01C12CD12CF12C862E912C82E0881A13
:1015000091088C2DF50161915F0190ED960F9A3055
:1015100020F09FEB960F963080F580FF09C0C8142D
:10152000D90434F4F501329780810E94500AF80EF4
:10153000FFEFCF1ADF0ACC1620F3D0E0C8018C0FE2
:101540009D1FFC013197DC01129760818C910E94F4
:10155000500AF194F81211C0F801618180810E9453
:10156000500A282F30E02B5F3F4F220F331FC21746
:10157000D30719F4E82E01C0E12C8E2DDF91CF9115
:101580001F910F91FF90EF90DF90CF90BF90AF90A1
:101590009F908F9008955F926F927F928F929F920B
:1015A000AF92BF92CF92DF92EF92FF920F931F9371
:1015B000CF93DF93EC017B01542E3F932F9322EBCB
:1015C00031E03F932F93FF926F930E948B1E5C013B
:1015D0002196852C912C0F900F900F900F900F90CB
:1015E0000F9000E010E03C0177240815190589F000
:1015F0006301C00ED11ECE0CDF1CFE013197688145
:1016000080810E94500AF60180830F5F1F4F22964F
:10161000ECCF852D8A0DDF91CF911F910F91FF9017
:10162000EF90DF90CF90BF90AF909F908F907F9082
:101630006F905F900895CF92DF92EF92FF920F9399
:101640001F93CF93DF93CDB7DEB70DB71EB7262F0D
:1016500030E0220F331FA9014F5F5F4FEDB7FEB798
:10166000E41BF50B0FB6F894FEBF0FBEEDBF4DB7F0
:101670005EB74F5F5F4F7A01FFEFEF1AFF0ADA01A3
:10168000782F6C018C2D871B8617B8F4F601819199
:101690006F01982F92959F7090639A330CF0995D2B
:1016A0009C938F7080638A330CF0895DF70180838F
:1016B000F2E0EF0EF11C1296E5CFFA01E20FF31FF4
:1016C0001082BA0185ED93E00E9484180FB6F89459
:1016D0001EBF0FBE0DBFDF91CF911F910F91FF90E5
:1016E000EF90DF90CF9008952F923F924F925F92AC
:1016F0006F927F928F929F92AF92BF92CF92DF9222
:10170000EF92FF920F931F93CF93DF93CDB7DEB786
:1017100028970FB6F894DEBF0FBECDBF9C838B8396
:10172000B62E4A01D22E38010E94E1141B012C0171
:10173000970140E050E02D833E834F835887AA20D5
:1017400051F062EB70E085ED93E00E9441186D2D41
:10175000C4010E941B0BEC2C02E02D2DA4016B2D6B
:101760008B819C810E94D303811118C00E94E114D7
:10177000DC01CB0182199309A409B5092D813E81B1
:101780004F815885281739074A075B07C0F668E676
:1017900070E085ED93E00E94721865C010914503DA
:1017A000AA20C1F069EA70E085ED93E00E9441183B
:1017B0004AE050E0612F85ED93E00E94EC1865EA65
:1017C00070E085ED93E00E944118612F87E493E07B
:1017D0000E941B0B183050F287E493E020914703DE
:1017E000263421F6209148032C3409F0BFCF2091F4
:1017F0004903283509F0BACF20914A032A3309F06A
:10180000B5CF612F70E0FB01EC5BFC4F20812A33E8
:1018100009F0ACCFFB01EB5BFC4F20812F3409F0CA
:10182000A5CFFB01EA5BFC4F20812B3409F09ECF52
:101830001A8219829E012F5F3F4F3F932F9322EC14
:1018400031E03F932F939F938F930E94AE1E81E0D0
:101850000F900F900F900F900F900F9029813A8169
:101860002615370509F080E028960FB6F894DEBFFC
:101870000FBECDBFDF91CF911F910F91FF90EF90E1
:10188000DF90CF90BF90AF909F908F907F906F90A0
:101890005F904F903F902F9008952F923F924F92DC
:1018A0005F926F927F928F929F92AF92BF92CF92F0
:1018B000DF92EF92FF920F931F93CF93DF93CDB7F9
:1018C000DEB7C65CD1090FB6F894DEBF0FBECDBF40
:1018D000C454DF4F99838883CC5BD040CF53DF4F14
:1018E0006883C15CD040C854DF4F59834883C85BCC
:1018F000D040C254DF4F39832883CE5BD040B02E16
:101900000E94E1142B013C0120914403C054DF4F9D
:101910002883C05CD040812C912C1E0134E7230E1B
:10192000311CC854DF4FA881B981C85BD040CD01BC
:10193000A0E0B0E0CE53DF4F88839983AA83BB83B6
:10194000C25CD04028EE33E043E76AE0CE01019666
:101950000E94BF09082F282F30E0C654DF4F39837B
:101960002883CA5BD0402630310508F4F4C0898151
:10197000863409F0F0C08A818C3409F0ECC08B8188
:10198000883509F0E8C08C818A3309F0ABC0FE01CC
:10199000359614E0C12CD12C9FEF910F819120ED51
:1019A000280F2A3078F44AE04C9D90014D9D300D6F
:1019B0001124690150E3C51AD108C80ED11C87FD56
:1019C000DA9407C08A3329F4812F192F843039F42F
:1019D000DEC081E0810F883011F0182FDDCF81E06B
:1019E000810FE1E0F0E0EC0FFD1FE80FF11D8081B9
:1019F0008A3309F0CCC00E94E1142B013C011E5F28
:101A0000E12EF12C602F611B81E090E08C0F9D1F77
:101A10008E0D9F1D0E94620A882309F45DC0C814C0
:101A2000D90409F05FC098E0E90EF11C9401482F39
:101A3000B10181E090E08C0F9D1F8E0D9F1D0E94D3
:101A4000CB0A282FC454DF4F68817981CC5BD0400A
:101A5000CE0183559F4FCA53DF4F2883C65CD040C9
:101A60000E949509AB2CC254DF4FC880D980CE5B51
:101A7000D040C854DF4FE880F980C85BD040840173
:101A8000CA53DF4F2881C65CD040A101C054DF4F4C
:101A90006881C05CD040CE0183559F4F0E94740B7B
:101AA000882309F474C09F928F92A2ECB1E0BF9397
:101AB000AF933F922F920E948B1EB10185ED93E070
:101AC0000E9484183FEF831A930A0F900F900F9093
:101AD0000F900F900F9006C06EEE70E085ED93E0D2
:101AE0000E947218C654DF4F48815981CA5BD040AA
:101AF0004730510581F58C818F3369F58D818534AF
:101B000051F58E818F3439F58F81863421F5C45497
:101B1000DF4F68817981CC5BD040CE0183559F4FE8
:101B20000E949509EB2CC254DF4F08811981CE5BCE
:101B3000D040C854DF4F28813981C85BD04041E094
:101B4000CF53DF4F6881C15CD040CE0183559F4F9A
:101B50000E94E6091DC00E94E114DC01CB0184193A
:101B60009509A609B709CE53DF4F288139814A81EB
:101B70005B81C25CD040281739074A075B0708F031
:101B8000E1CE6AEB70E085ED93E00E94411880E0C1
:101B9000CA53DF4F0FB6F894DEBF0FBECDBFDF9143
:101BA000CF911F910F91FF90EF90DF90CF90BF905A
:101BB000AF909F908F907F906F905F904F903F90ED
:101BC0002F900895CF92DF92EF92FF920F931F9381
:101BD000CF93DF93CDB7DEB72D970FB6F894DEBF66
:101BE0000FBECDBF7C01162F6A012C873D870E9456
:101BF0005404AB01BC01405C5D4B604F7F4FC7019B
:101C00000E94B404B701CE0101960E9495092C856B
:101C10003D85A601612FCE0101960E944D0CD82E64
:101C2000C7010E945404AB01BC01405452446F40B0
:101C30007109C7010E94B4048D2D2D960FB6F8943A
:101C4000DEBF0FBECDBFDF91CF911F910F91FF90EF
:101C5000EF90DF90CF9008956F927F928F929F9236
:101C6000AF92BF92CF92EF92FF920F931F93CF93B9
:101C7000DF93CDB7DEB72B970FB6F894DEBF0FBE5C
:101C8000CDBFFC016430B9F580818634A1F5818136
:101C90008C3489F58281883571F583818F3359F5CC
:101CA00047015801F22E3A01BA01CE0101960E9475
:101CB0009509EC2C8401950140E06F2DCE01019631
:101CC0000E94E609182F882379F080914503873018
:101CD000A0F080914B038E3481F467E473E085EDCE
:101CE00093E00E94841807C065E071E085ED93E001
:101CF0000E9472182DC010E02BC06FE471E085EDDA
:101D000093E00E947218B301CE0101960E949509DA
:101D10000C2D9401A5016F2DCE0101960E94E20DBC
:101D2000182F882379F068E471E085ED93E00E9434
:101D30007218CC2061F069E271E085ED93E00E94B9
:101D4000721805C0CC20B9F26DE071E0CFCF11E080
:101D5000812F2B960FB6F894DEBF0FBECDBFDF915B
:101D6000CF911F910F91FF90EF90CF90BF90AF90C8
:101D70009F908F907F906F900895CF93CFB7F894F6
:101D800080918403811127C0E9E8F1E08491E5E7BF
:101D9000F1E09491E82FF0E0EE0FFF1FE955FE4FC0
:101DA000A591B491EC91E92321F461E08AE00E94CD
:101DB000EE1561E08AE00E94B2158CB580618CBDA1
:101DC0008CB580648CBD61E08DE00E94B21561E04D
:101DD0008BE00E94B215809184038F5F809384030F
:101DE000CFBFCF910895CF93DF93CDB7DEB7A8973C
:101DF0000FB6F894DEBF0FBECDBF9E01235D3F4FEF
:101E0000F901419151919F0168E270E0CE01019684
:101E10000E94C71EBE016F5F7F4F85ED93E00E9459
:101E20006518A8960FB6F894DEBF0FBECDBFDF9140
:101E3000CF910895CF93DF93EC0161E089E00E9498
:101E4000B21561E089E00E94EE15BE01DD0F880B3E
:101E5000990B0E94121560E089E0DF91CF910C94FC
:101E6000EE15CF93DF93EC01FC01E55AFD4F88EEB0
:101E700093E091838083D0938603C0938503798315
:101E800068834A83198618861B8240E250E06FEF10
:101E900070E0CE01885F9D4F0E94251E40E250E019
:101EA00064E370E0CE01855C9D4F0E94842460E075
:101EB0008EE0DF91CF910C94B215FC01E85DFD4FEF
:101EC000885C9D4FDB012D91BD012193E817F90737
:101ED000C9F70895CF93DF93EC0163E1888199817D
:101EE0000E942A04682F80E090E00E94AC24FE014A
:101EF000E65CFD4F608181E090E00E94AC24FE0131
:101F0000E75CFD4F608182E090E00E94AC24FE011E
:101F1000E85CFD4F608183E190E00E94AC2440E1E9
:101F200050E063E070E0CE01885D9D4FDF91CF917E
:101F30000C949C248F929F92AF92BF92CF92DF928B
:101F4000EF92FF920F931F93CF93DF931F92CDB722
:101F5000DEB74C01162F022F80E090E049830E94EB
:101F6000942449818F3019F08A3109F052C04423FA
:101F700009F44FC065E072E085ED93E00E9484189B
:101F800081E090E00E949424540196ECA91A9DEF00
:101F9000B90AF501808382E090E00E9494247401E4
:101FA000F7ECEF1AFDEFFF0AF701808383E190E081
:101FB0000E9494246401F8ECCF1AFDEFDF0AF601C9
:101FC00080838401085D1D4F40E150E063E070E0D4
:101FD000C8010E948424F5012081F6014081F701A7
:101FE0006081F401808191810E948506B801F4012D
:101FF000808191810F90DF91CF911F910F91FF9080
:10200000EF90DF90CF90BF90AF909F908F900C9407
:102010003D066FE172E085ED93E00E94841824E6AE
:10202000412F66E5F401808191810E9485066FE26F
:1020300072E0F401808191810E943D06002329F124
:1020400060E472E085ED93E00E948418F401E85C9E
:10205000FD4F1083319686E58083319684E6808338
:102060006FE272E0C4010E945D0FC4010F90DF9126
:10207000CF911F910F91FF90EF90DF90CF90BF9085
:10208000AF909F908F900C946A0F0F90DF91CF913B
:102090001F910F91FF90EF90DF90CF90BF90AF9086
:1020A0009F908F900895AC0182E0E82FF0E093E0DC
:1020B000F595E7959A95E1F7E40FF51FE55CFD4F7F
:1020C000208130E020953095982F977002C035958B
:1020D00027959A95E2F720FF02C08F5FE6CF08951B
:1020E0006F927F928F929F92AF92BF92CF92DF9228
:1020F000EF92FF920F931F93CF93DF93CDB7DEB78D
:1021000027970FB6F894DEBF0FBECDBF4C013B0141
:10211000D701BE82AD8223E0C216D1040CF454C1B3
:1021200011968C911197853008F04EC19C919F3F7C
:1021300009F0B6C0833009F0B3C012968C911297A3
:102140008031D9F50E94E11469837A838B839C8363
:10215000CE0101960E940913D4018D919C91DC015E
:10216000ED91FC9140910701509108010190F0819F
:10217000E02D00E027E0662D0995F30173E0F59569
:10218000E7957A95E1F78E0E9F1EF401E85FFD4F0B
:10219000C30168E070E00E94AE1B21E030E0A901BD
:1021A00002C0440F551F8A95E2F7CA0180959081BD
:1021B0008923808383E090E009C1833009F070C0F7
:1021C0006EE472E085ED93E00E948418C4010E94E1
:1021D0005013D4018D919C91DC01ED91FC9102840E
:1021E000F385E02D60E00995F401C080D180D6012F
:1021F000ED91FC91A280B3800E94DD128F830E943A
:10220000D812AC0168E2E62E02E02F81662DC601ED
:10221000F5010995182FD4018D919C91DC01ED9168
:10222000FC910284F385E02D6FE10995112309F4F7
:10223000C2C0E0910901F0910A018581E82FF0E028
:1022400053E0F595E7955A95E1F7E80DF91DE55C42
:10225000FD4F282F277081E090E001C0880F2A955C
:10226000EAF7809590818923808340E250E064E31F
:1022700070E0C401855C9D4F0E949C2463E672E07F
:1022800085ED93E00E948418F401E85CFD4F21E0A5
:1022900041E06081C4010E949A0FF40113828BC057
:1022A000AD80BE80F50160828C91818311968C9106
:1022B00011978283038312968C91129784837D01F8
:1022C000F3E0EF0EF11CC5010596AD014C0D5D1D4F
:1022D000960123503109E416F50639F0F7016191B2
:1022E0007F01FC016193CF01F6CF12968C91813171
:1022F00009F464C0843009F464C0830143E0159597
:1023000007954A95E1F7C30168E070E00E94AE1BB3
:10231000782E800E911EF8EF8F1AFDEF9F0AD401E0
:102320008C9190E080959095072C02C095958795AB
:102330000A94E2F780FF38C0D70111978C9111976A
:102340004C9150E060E070E0BA0155274427782BAB
:1023500012978C91482BF70133978081582B498332
:102360005A836B837C830E94E11409811A812B813B
:102370003C81DC01CB01801B910BA20BB30B883B92
:102380009B40A105B10500F5CA0CDB1CF601329794
:10239000108281E090E001C0880F7A94EAF7D401BE
:1023A0009C91892B8C9304C0F501E20FF31F1582D9
:1023B00081E090E00BC084E090E008C082E090E013
:1023C00005C085E090E002C080E090E027960FB65F
:1023D000F894DEBF0FBECDBFDF91CF911F910F915B
:1023E000FF90EF90DF90CF90BF90AF909F908F9035
:1023F0007F906F9008954F925F926F927F928F922D
:102400009F92AF92BF92CF92DF92EF92FF920F9383
:102410001F93CF93DF93CDB7DEB7C154D1090FB669
:10242000F894DEBF0FBECDBF4C01562E442309F4F5
:1024300070C010E0FF24F39420E4422ECE010196F8
:102440003C010E94F612D4018D919C91DC01ED912A
:10245000FC9140910701509108010190F081E02D1D
:1024600000E023E0652D09950E94E1145B016C01F9
:10247000FF2009F440C00E94E114DC01CB018A195D
:102480009B09AC09BD09883E9340A105B105A0F5A3
:10249000F40180819181DC01ED91FC910480F58152
:1024A000E02D0995882339F3F301242D11922A9503
:1024B000E9F7C09045038091410320913E0330919C
:1024C0003F034091430360914403D12C01E081110B
:1024D00001C000E050E070E0530197E4E92E93E082
:1024E000F92EC4010E947010029761F4CE01069685
:1024F0000E94E11213E0F12C1F5F133008F4A1CF0A
:10250000FF2039F0D4018D919C910E94AB0380E0B3
:1025100021C0F401C080D180D601ED91FC91A28050
:10252000B3800E94DD1222968FAF22970E94D812AC
:10253000AC0188E2E82E02E022962FAD2297652DAD
:10254000C601F5010995182FD4018D919C910E9427
:10255000AB03812FCF5BDF4F0FB6F894DEBF0FBE0A
:10256000CDBFDF91CF911F910F91FF90EF90DF9042
:10257000CF90BF90AF909F908F907F906F905F9023
:102580004F9008950F931F93CF93DF931F92CDB772
:10259000DEB78C01CB0149830E9491134981682FDA
:1025A000C8010F90DF91CF911F910F910C94FB11F7
:1025B0008091090190910A0108958091870390E02C
:1025C0000895BC01909187032091090130910A017F
:1025D00044E050E0F901E90FF11DCF010E94331EE4
:1025E000809187038C5F809387030895E0910701B2
:1025F000F09108018FEF8083E0910701F0910801CD
:1026000083E08183E0910701F091080180E18283FA
:102610000895FC01A0910701B09108018FEF8C9300
:10262000A0910701B091080183E011968C93A091CD
:102630000701B091080181E112968C931297808175
:1026400013968C9313974081518162817381452F3A
:10265000562F672F772740835183628373831496A5
:102660004C9314974081518162817381452F562F7D
:10267000672F7727408351836283738315964C932A
:1026800015974081518162817381452F562F672FA5
:102690007727408351836283738316964C93089502
:1026A0000F931F93CF93DF93EC01E0910901F09119
:1026B0000A018FEF8083E0910901F0910A0183E024
:1026C00081830091090110910A0184E0F80182835D
:1026D000FE01E65CFD4F8081F8018383FE01E75C2B
:1026E000FD4F8081F8018483CE010E945310F801D0
:1026F0008583C85DDD4F80E090E02991E09109017C
:10270000F0910A01E80FF91F2683019680319105A7
:10271000A1F786E180938703DF91CF911F910F91FD
:102720000895CF92DF92EF92FF920F931F93CF9372
:10273000DF9300D0CDB7DEB7AE014F5F5F4F66E5E8
:1027400071E00E945C1EF12C00E010E0E12C00978B
:1027500009F46EC00630110509F46AC00330110592
:1027600021F13CF40130110571F002301105A1F0A6
:1027700006C00430110511F10530110541F10E9428
:10278000F51DE82E49C0C0900901D0900A010E94B1
:10279000F51DF601808340C0C0900901D0900A0168
:1027A0000E94F51DF601818337C00E94F51D21E0CE
:1027B000892B09F420E0209306012EC0C090090166
:1027C000D0900A010E94F51DF601828325C0FC010C
:1027D00001900020E9F731979F01281B390BF22E59
:1027E000782FDC0143E050E06A2F671B6F1558F427
:1027F0006D91E0910901F0910A01E40FF51F6083EA
:102800004F5F5F4FF1CF2150FC01E20FF11D80813E
:102810008A3011F41082F22E0F5F1F4FAE014F5F0E
:102820005F4F66E571E080E090E00E945C1E8FCF14
:1028300083E08F0D809387038E2D0F900F90DF9193
:10284000CF911F910F91FF90EF90DF90CF9008955F
:1028500008958230E8F4E82FF0E0EE0FFF1FE55F07
:10286000FE4F71836083813041F0809169008C7FDD
:10287000482B40936900E89A089580916900440FBD
:10288000551F440F551F837F482B40936900E99AD9
:1028900008951F920F920FB60F9211242F933F931A
:1028A0004F935F936F937F938F939F93AF93BF9358
:1028B000EF93FF93E0910B01F0910C010995FF91CB
:1028C000EF91BF91AF919F918F917F916F915F91A8
:1028D0004F913F912F910F900FBE0F901F90189521
:1028E0001F920F920FB60F9211242F933F934F9385
:1028F0005F936F937F938F939F93AF93BF93EF9368
:10290000FF93E0910D01F0910E010995FF91EF9178
:10291000BF91AF919F918F917F916F915F914F91F7
:102920003F912F910F900FBE0F901F9018951F92FF
:102930000F920FB60F9211242F933F938F939F9373
:10294000AF93BF938091CD039091CE03A091CF031D
:10295000B091D0033091CC0323E0230F2D3720F426
:102960000196A11DB11D05C026E8230F0296A11DE9
:10297000B11D2093CC038093CD039093CE03A093FD
:10298000CF03B093D0038091D1039091D203A09153
:10299000D303B091D4030196A11DB11D8093D1033F
:1029A0009093D203A093D303B093D403BF91AF917C
:1029B0009F918F913F912F910F900FBE0F901F907D
:1029C00018952FB7F8946091CD037091CE03809144
:1029D000CF039091D0032FBF08953FB7F894809113
:1029E000D1039091D203A091D303B091D40326B523
:1029F000A89B05C02F3F19F00196A11DB11D3FBF37
:102A0000BA2FA92F982F8827820F911DA11DB11DC4
:102A1000BC01CD0142E0660F771F881F991F4A95C0
:102A2000D1F708958F929F92AF92BF92CF92DF928B
:102A3000EF92FF926B017C010E94ED144B015C014F
:102A4000C114D104E104F10401F10E94111A0E94A1
:102A5000ED14DC01CB0188199909AA09BB09883E4C
:102A60009340A105B10560F321E0C21AD108E10845
:102A7000F10888EE880E83E0981EA11CB11CC114D9
:102A8000D104E104F10419F7DBCFFF90EF90DF9060
:102A9000CF90BF90AF909F908F900895789484B519
:102AA000826084BD84B5816084BD85B5826085BD4A
:102AB00085B5816085BDEEE6F0E080818160808330
:102AC000E1E8F0E010828081826080838081816013
:102AD0008083E0E8F0E0808181608083E1EBF0E0DA
:102AE000808184608083E0EBF0E08081816080837E
:102AF000EAE7F0E080818460808380818260808367
:102B00008081816080838081806880831092C10091
:102B10000895833081F028F4813099F08230A1F05B
:102B200008958730A9F08830B9F08430D1F48091CD
:102B300080008F7D03C0809180008F77809380001C
:102B4000089584B58F7702C084B58F7D84BD0895C4
:102B50008091B0008F7703C08091B0008F7D80930B
:102B6000B0000895CF93DF9390E0FC01E559FE4F4C
:102B70002491FC01E158FE4F8491882361F190E09B
:102B8000880F991FFC01E955FE4FC591D491FC01B6
:102B9000E356FE4FA591B491611109C09FB7F89417
:102BA0008881209582238883EC912E230BC062308C
:102BB00061F49FB7F8943881822F809583238883AE
:102BC000EC912E2B2C939FBF06C08FB7F894E88111
:102BD0002E2B28838FBFDF91CF9108951F93CF9322
:102BE000DF93282F30E0F901E95AFE4F8491F90173
:102BF000E559FE4FD491F901E158FE4FC491CC2321
:102C0000C9F0162F81110E948915EC2FF0E0EE0F0C
:102C1000FF1FE356FE4FA591B4918FB7F8941111A1
:102C200005C09C91ED2FE095E92302C0EC91ED2BBE
:102C3000EC938FBFDF91CF911F910895CF93DF93D6
:102C4000282F30E0F901E95AFE4F8491F901E55946
:102C5000FE4FD491F901E158FE4FC491CC2391F07D
:102C600081110E948915EC2FF0E0EE0FFF1FED5649
:102C7000FE4FA591B491EC91ED2381E090E021F419
:102C800080E002C080E090E0DF91CF910895FC01E8
:102C9000918D228D892F90E0805C9F4F821B91093E
:102CA0008F7399270895FC01918D828D981731F0CB
:102CB000828DE80FF11D858D90E008958FEF9FEFD5
:102CC0000895FC01918D828D981761F0828DDF014E
:102CD000A80FB11D5D968C91928D9F5F9F73928F0F
:102CE00090E008958FEF9FEF08958AEC97E1892B8C
:102CF00049F080E090E0892B29F00E94CA178111E9
:102D00000C9400000895FC01848DDF01A80FB11D13
:102D1000A35ABF4F2C91848D90E001968F73992711
:102D2000848FA689B7892C93A089B1898C918064FE
:102D30008C93938D848D981306C00288F389E02DBF
:102D400080818F7D80830895CF93DF93EC01888D00
:102D50008823C9F0EA89FB89808185FD05C0A8899F
:102D6000B9898C9186FD0FC00FB607FCF5CF808125
:102D700085FFF2CFA889B9898C9185FFEDCFCE016F
:102D80000E948316E7CFDF91CF910895EF92FF92D3
:102D90000F931F93CF93DF93EC0181E0888F9B8D7E
:102DA0008C8D981305C0E889F989808185FD24C040
:102DB000F62E0B8D10E00F5F1F4F0F731127E02EC3
:102DC0008C8DE8120CC00FB607FCFACFE889F989A0
:102DD000808185FFF5CFCE010E948316F1CF8B8DC8
:102DE000FE01E80FF11DE35AFF4FF0820B8FEA89D5
:102DF000FB898081806207C0EE89FF896083E88952
:102E0000F98980818064808381E090E0DF91CF91B7
:102E10001F910F91FF90EF900895CF92DF92EF9264
:102E2000FF921F93CF93DF93EC016A017B01122F76
:102E3000E889F98982E080834115514E6105710569
:102E4000B1F060E079E08DE390E0A70196010E9487
:102E5000C21BDA01C9010197A109B109B695A7956D
:102E600097958795AC01411580E15807A8F0E8894E
:102E7000F989108260E874E88EE190E0A70196017C
:102E80000E94C21BBA01A90141505109610971098F
:102E90007695679557954795EC85FD855083EE852A
:102EA000FF854083188EEC89FD891083EA89FB89B0
:102EB000808180618083EA89FB898081886080834A
:102EC000EA89FB89808180688083EA89FB89808127
:102ED0008F7D8083DF91CF911F91FF90EF90DF90E6
:102EE000CF9008951F920F920FB60F9211242F9337
:102EF0008F939F93EF93FF93E091E503F091E603A7
:102F00008081E091EB03F091EC0382FD12C090818F
:102F10008091EE038F5F8F732091EF03821751F042
:102F2000E091EE03F0E0EB52FC4F958F8093EE03BF
:102F300001C08081FF91EF919F918F912F910F9010
:102F40000FBE0F901F9018951F920F920FB60F9201
:102F500011242F933F934F935F936F937F938F939E
:102F60009F93AF93BF93EF93FF9385ED93E00E9400
:102F70008316FF91EF91BF91AF919F918F917F91B8
:102F80006F915F914F913F912F910F900FBE0F90D6
:102F90001F90189585ED93E00E94471621E0892B3C
:102FA00009F420E0822F0895E5EDF3E01382128208
:102FB00088EE93E0A0E0B0E084839583A683B78396
:102FC00084E792E09183808385EC90E09587848705
:102FD00084EC90E09787868780EC90E0918B808BE3
:102FE00081EC90E0938B828B82EC90E0958B848BCC
:102FF00086EC90E0978B868B118E128E138E148E3A
:103000000895CF92DF92EF92FF920F931F93CF9389
:10301000DF936C017A018B01C0E0D0E0CE15DF05B3
:1030200089F0D8016D918D01D601ED91FC9101904F
:10303000F081E02DC6010995892B11F47E0102C0B3
:103040002196ECCFC701DF91CF911F910F91FF9097
:10305000EF90DF90CF9008956115710579F0FB0135
:1030600001900020E9F73197AF01461B570BDC01B7
:10307000ED91FC910280F381E02D099480E090E0D5
:103080000895EF92FF920F931F93CF93DF938C01DC
:103090007B01C0E0D0E0F701EC0FFD1F64916623D7
:1030A00061F0D801ED91FC910190F081E02DC80113
:1030B0000995892B11F02196EECFCE01DF91CF91AA
:1030C0001F910F91FF90EF9008950C942C18DC0144
:1030D000ED91FC910190F081E02D099460E872E09F
:1030E0000C942C180F931F93CF93DF93EC010E9445
:1030F00041188C01CE010E946E18800F911FDF9144
:10310000CF911F910F9108950F931F93CF93DF934A
:10311000EC010E942C188C01CE010E946E18800FC9
:10312000911FDF91CF911F910F9108954F925F9260
:103130006F927F92EF92FF920F931F93CF93DF9343
:10314000CDB7DEB7A1970FB6F894DEBF0FBECDBFE7
:103150007C01FA01CB0119A2223008F42AE08E0189
:103160000F5D1F4F422E512C612C712CBF01A3010A
:1031700092010E94C21BF901CA01015011096A3073
:1031800014F4605D01C0695CD8016C93232B242B7F
:10319000252B61F7B801C7010E942C18A1960FB624
:1031A000F894DEBF0FBECDBFDF91CF911F910F917D
:1031B000FF90EF907F906F905F904F900895211552
:1031C000310541F4DC01ED91FC910190F081E02D9D
:1031D000642F09940C9496189A01462F50E060E0F1
:1031E00070E00C94DF180F931F93CF93DF93EC01E3
:1031F0000E94E114688779878A879B87E881F98133
:103200000680F781E02DCE01099597FF17C00E9437
:10321000E114088519852A853B85DC01CB01801BDB
:10322000910BA20BB30B0C811D812E813F81801766
:103230009107A207B30710F38FEF9FEFDF91CF91B4
:103240001F910F910895FC01448355836683778312
:103250000895AF92BF92CF92DF92EF92FF920F93B9
:103260001F93CF93DF9321153105D1F079015C01D4
:103270006A01C0E0D0E0062F660F110BC5010E9465
:10328000F31897FF02C0CE010DC080179107D9F344
:10329000F60181936F012196CE15DF0579F7F3CF03
:1032A00080E090E0DF91CF911F910F91FF90EF9020
:1032B000DF90CF90BF90AF900895FC018081918105
:1032C0000C94931CCF93DF93EC0188819981009734
:1032D00011F00E94931C198218821D821C821B828D
:1032E0001A82DF91CF9108950F931F93CF93DF93AD
:1032F000EC018B016F5F7F4F888199810E942B1DAC
:10330000009731F0998388831B830A8381E001C091
:1033100080E0DF91CF911F910F910895CF93DF93BC
:10332000EC0188819981892B29F08A819B818617FC
:10333000970760F4CE010E947419882341F08C81B4
:103340009D81892B19F4E881F981108281E0DF9158
:10335000CF910895EF92FF920F931F93CF93DF9336
:10336000EC017B018A01BA010E948E19811104C00F
:10337000CE010E94621907C01D830C83B7018881AA
:1033800099810E942C1ECE01DF91CF911F910F9148
:10339000FF90EF900895FC01118210821382128237
:1033A000158214826115710551F0FB010190002016
:1033B000E9F73197AF01461B570B0C94AA190895F2
:1033C000CF93DF93FC01248135814217530780F4AA
:1033D000FB01DC01CD91DC9160817181CE01840F14
:1033E000951F0E94421E009719F08C1B9D0B02C076
:1033F0008FEF9FEFDF91CF91089540E050E00C9464
:10340000E01908950E944E150E94011A0E940B01B6
:10341000C5E7D6E10E94ED022097E1F30E94751600
:10342000F9CF08950E94261A0C94071B0E94001BD6
:1034300058F00E94F91A40F029F45F3F29F00C94EB
:10344000F01A51110C943B1B0C94F61A0E94181B95
:1034500068F39923B1F3552391F3951B550BBB27C3
:10346000AA2762177307840738F09F5F5F4F220F08
:10347000331F441FAA1FA9F335D00E2E3AF0E0E8FF
:1034800032D091505040E695001CCAF72BD0FE2F49
:1034900029D0660F771F881FBB1F261737074807DD
:1034A000AB07B0E809F0BB0B802DBF01FF27935895
:1034B0005F4F3AF09E3F510578F00C94F01A0C944F
:1034C0003B1B5F3FE4F3983ED4F386957795679571
:1034D000B795F7959F5FC9F7880F911D96958795CA
:1034E00097F90895E1E0660F771F881FBB1F6217E9
:1034F00073078407BA0720F0621B730B840BBA0BA7
:10350000EE1F88F7E09508950E94201B88F09F57D2
:1035100098F0B92F9927B751B0F0E1F0660F771FF7
:10352000881F991F1AF0BA95C9F714C0B13091F0ED
:103530000E943A1BB1E008950C943A1B672F782F34
:103540008827B85F39F0B93FCCF3869577956795B2
:10355000B395D9F73EF490958095709561957F4F1E
:103560008F4F9F4F0895E89409C097FB3EF49095C4
:103570008095709561957F4F8F4F9F4F9923A9F04C
:10358000F92F96E9BB279395F695879577956795DB
:10359000B795F111F8CFFAF4BB0F11F460FF1BC01F
:1035A0006F5F7F4F8F4F9F4F16C0882311F096E9B2
:1035B00011C0772321F09EE8872F762F05C0662360
:1035C00071F096E8862F70E060E02AF09A95660F19
:1035D000771F881FDAF7880F9695879597F90895D2
:1035E00097F99F6780E870E060E008959FEF80ECB6
:1035F000089500240A941616170618060906089559
:1036000000240A9412161306140605060895092EBE
:103610000394000C11F4882352F0BB0F40F4BF2B2D
:1036200011F460FF04C06F5F7F4F8F4F9F4F08956D
:1036300057FD9058440F551F59F05F3F71F0479563
:10364000880F97FB991F61F09F3F79F08795089548
:10365000121613061406551FF2CF4695F1DF08C067
:10366000161617061806991FF1CF86957105610584
:1036700008940895E894BB2766277727CB0197F92C
:1036800008950E94541B0C94071B0E94F91A38F0ED
:103690000E94001B20F0952311F00C94F01A0C945A
:1036A000F61A11240C943B1B0E94181B70F3959F73
:1036B000C1F3950F50E0551F629FF001729FBB2729
:1036C000F00DB11D639FAA27F00DB11DAA1F649FC5
:1036D0006627B00DA11D661F829F2227B00DA11D78
:1036E000621F739FB00DA11D621F839FA00D611DFE
:1036F000221F749F3327A00D611D231F849F600D1F
:10370000211D822F762F6A2F11249F5750409AF047
:10371000F1F088234AF0EE0FFF1FBB1F661F771FD3
:10372000881F91505040A9F79E3F510580F00C949E
:10373000F01A0C943B1B5F3FE4F3983ED4F386955C
:1037400077956795B795F795E7959F5FC1F7FE2B3E
:10375000880F911D9695879597F9089597FB072EE9
:1037600016F4009407D077FD09D00E94E41B07FCF3
:1037700005D03EF4909581959F4F08957095619581
:103780007F4F0895A1E21A2EAA1BBB1BFD010DC09D
:10379000AA1FBB1FEE1FFF1FA217B307E407F50701
:1037A00020F0A21BB30BE40BF50B661F771F881FDD
:1037B000991F1A9469F760957095809590959B0173
:1037C000AC01BD01CF010895AA1BBB1B51E107C08D
:1037D000AA1FBB1FA617B70710F0A61BB70B881FA1
:1037E000991F5A95A9F780959095BC01CD01089530
:1037F000EE0FFF1F0590F491E02D0994CF93DF9316
:103800008230910510F482E090E0E0917404F09130
:10381000750420E030E0C0E0D0E0309711F1408145
:10382000518148175907C0F04817590761F4828140
:103830009381209719F09B838A832BC09093750402
:103840008093740426C02115310519F042175307DF
:1038500018F49A01BE01DF01EF010280F381E02D2F
:10386000DCCF2115310509F1281B390B2430310536
:1038700090F412968D919C9113976115710521F02A
:10388000FB019383828304C0909375048093740436
:10389000FD01329644C0FD01E20FF31F8193919325
:1038A000225031092D933C933AC0209172043091FB
:1038B0007304232B41F420910201309103013093D2
:1038C00073042093720420910001309101012115AD
:1038D000310541F42DB73EB74091040150910501E7
:1038E000241B350BE0917204F0917304E217F30787
:1038F000A0F42E1B3F0B2817390778F0AC014E5F60
:103900005F4F2417350748F04E0F5F1F5093730425
:10391000409372048193919302C0E0E0F0E0CF0104
:10392000DF91CF9108950F931F93CF93DF9300976B
:1039300009F48CC0FC013297138212820091740446
:10394000109175040115110581F420813181820FD8
:10395000931F20917204309173042817390779F569
:10396000F0937304E093720471C0D80140E050E01A
:10397000AE17BF0750F412962D913C911397AD01ED
:103980002115310509F1D901F3CF9D01DA01338306
:10399000228360817181860F971F8217930769F4D4
:1039A000EC0128813981260F371F2E5F3F4F31836D
:1039B00020838A819B8193838283452B29F4F09312
:1039C0007504E093740442C01396FC93EE9312972F
:1039D000ED01499159919E01240F351FE217F3071C
:1039E00071F480819181840F951F029611969C93AA
:1039F0008E938281938113969C938E931297E0E02D
:103A0000F0E0D80112968D919C911397009719F0D0
:103A1000F8018C01F6CF8D919C9198012E5F3F4F5C
:103A2000820F931F20917204309173042817390775
:103A300069F4309729F4109275041092740402C04E
:103A4000138212821093730400937204DF91CF915A
:103A50001F910F910895A0E0B0E0E1E3FDE10C9427
:103A6000C224EC01009721F4CB010E94FE1BB8C0D8
:103A7000FC01E60FF71F9C0122503109E217F30702
:103A800008F4ACC0D9010D911C91119706171707C6
:103A9000B0F00530110508F49FC0C80104978617DF
:103AA000970708F499C002501109061B170B0193E0
:103AB00011936D937C93CF010E94931C8DC05B0189
:103AC000A01AB10A4C01800E911EA0917404B0910D
:103AD000750440E050E0E12CF12C109709F44AC045
:103AE000A815B905D1F56D907C901197630182E01E
:103AF000C80ED11CCA14DB0480F1A3014A195B096A
:103B00006A0182E0C80ED11C1296BC9012971396DF
:103B1000AC91B5E0CB16D10440F0B282A3835183BF
:103B20004083D9016D937C930AC00E5F1F4FC30180
:103B3000800F911FF90191838083EB2DFA2FE114FF
:103B4000F10431F0D7011396FC93EE93129744C021
:103B5000F0937504E09374043FC08D919C9111978C
:103B60004817590708F4AC017D0112960D90BC91DD
:103B7000A02DB3CF8091720490917304881599059C
:103B8000E1F446175707C8F48091000190910101B4
:103B9000009741F48DB79EB7409104015091050103
:103BA000841B950BE817F907C8F4F0937304E093AE
:103BB0007204F901718360830FC0CB010E94FE1B68
:103BC0007C01009759F0A801BE010E941C1ECE0185
:103BD0000E94931CC70104C0CE0102C080E090E0A7
:103BE000CDB7DEB7EEE00C94DE24FC0188279927E0
:103BF000E89421912032E9F3293010F02E30C8F3F7
:103C00002B3241F02D3239F4689404C00E94831E97
:103C1000820F911D219120532A30C0F31EF49095FC
:103C200081959F4F089591110C947323803219F060
:103C300089508550C8F70895FB01DC0102C001904E
:103C40000D9241505040D8F70895DC0101C06D93AA
:103C500041505040E0F70895FB01DC0101900D92C6
:103C60000020E1F70895FB01DC014150504048F08D
:103C700001900D920020C9F701C01D9241505040A3
:103C8000E0F70895FB0151915523A9F0BF01DC0134
:103C90004D9145174111E1F759F4CD0101900020F4
:103CA00049F04D9140154111C9F3FB014111EFCF8E
:103CB00081E090E001970895FA01A191B081009709
:103CC00019F41097E1F0CD01DC01CD010D90002039
:103CD00011F4C00113C0FB012191222319F020151A
:103CE000D9F7F3CFFB012191201519F41E921196FB
:103CF00006C02223C1F70D900020A1F7D001FA01E0
:103D0000A193B08308957AE0979F902D879F802D8F
:103D1000910D11240895AEE0B0E0E1E9FEE10C94CC
:103D2000CC240D891E8986E08C831A8309838FEF4A
:103D30009FE79E838D83AE01475E5F4F6F89788DCD
:103D4000CE0101960E94F31E2F813885F801E20F03
:103D5000F31F10822E96E4E00C94E824AEE0B0E06D
:103D6000E4EBFEE10C94CE2485E08C838B899C8966
:103D70009A838983AE01495E5F4F6D897E89CE014A
:103D800001960E9445222E96E2E00C94EA24AEE0D1
:103D9000B0E0EDECFEE10C94CC248C01CA0146E0CD
:103DA0004C831A83098377FF02C060E070E8FB014F
:103DB0003197FE83ED83A901BC01CE0101960E94DB
:103DC000F31E4D815E8157FD0AC02F813885421751
:103DD00053070CF49A01F801E20FF31F10822E969C
:103DE000E4E00C94E824ACE0B0E0E9EFFEE10C94F0
:103DF000BE247C016B018A01FC011782168283813B
:103E000081FFBDC1CE0101964C01F7019381F601FE
:103E100093FD859193FF81916F01882309F4ABC1D4
:103E2000853239F493FD859193FF81916F0185323D
:103E300029F4B70190E00E94D523E7CF512C312C13
:103E400020E02032A0F48B3269F030F4803259F057
:103E5000833269F420612CC08D3239F0803339F41B
:103E6000216026C02260246023C0286021C027FD75
:103E700027C030ED380F3A3078F426FF06C0FAE05C
:103E80005F9E300D1124532E13C08AE0389E300DF2
:103E90001124332E20620CC08E3221F426FD6BC11A
:103EA000206406C08C3611F4206802C0883641F4C4
:103EB000F60193FD859193FF81916F018111C1CF2F
:103EC000982F9F7D9554933028F40C5F1F4FFFE38C
:103ED000F9830DC0833631F0833771F0833509F0F3
:103EE0005BC022C0F801808189830E5F1F4F44248C
:103EF0004394512C540115C03801F2E06F0E711C2F
:103F0000F801A080B18026FF03C0652D70E002C0DB
:103F10006FEF7FEFC5012C870E948C232C0183015A
:103F20002C852F77222E17C03801F2E06F0E711CFE
:103F3000F801A080B18026FF03C0652D70E002C0AB
:103F40006FEF7FEFC5012C870E9481232C012C8508
:103F50002068222E830123FC1BC0832D90E048168D
:103F60005906B0F4B70180E290E00E94D5233A945C
:103F7000F4CFF50127FC859127FE81915F01B70100
:103F800090E00E94D52331103A94F1E04F1A510885
:103F90004114510471F7E5C0843611F0893639F5C2
:103FA000F80127FF07C060817181828193810C5FD6
:103FB0001F4F08C060817181072E000C880B990B80
:103FC0000E5F1F4F2F76722E97FF09C09095809538
:103FD000709561957F4F8F4F9F4F2068722E2AE01A
:103FE00030E0A4010E942624A82EA81844C08537DA
:103FF00029F42F7EB22E2AE030E025C0F22FF97F7F
:10400000BF2E8F36C1F018F4883579F0B4C08037F0
:1040100019F0883721F0AFC02F2F2061B22EB4FEE7
:104020000DC08B2D8460B82E09C024FF0AC09F2FBD
:104030009660B92E06C028E030E005C020E130E0EF
:1040400002C020E132E0F801B7FE07C06081718153
:10405000828193810C5F1F4F06C06081718180E077
:1040600090E00E5F1F4FA4010E942624A82EA818DE
:10407000FB2DFF777F2E76FE0BC0372D3E7FA514DC
:1040800050F474FE0AC072FC08C0372D3E7E05C095
:10409000BA2C372D03C0BA2C01C0B52C34FF0DC08B
:1040A000FE01EA0DF11D8081803311F4397E09C0D3
:1040B00032FF06C0B394B39404C0832F867809F00E
:1040C000B39433FD13C030FF06C05A2CB31418F458
:1040D000530C5B18B32CB31468F4B70180E290E082
:1040E0003C870E94D523B3943C85F5CFB31410F4DC
:1040F0003B1801C0312C34FF12C0B70180E390E0BF
:104100003C870E94D5233C8532FF17C031FD03C098
:1041100088E790E002C088E590E0B7010CC0832FEB
:10412000867859F031FF02C08BE201C080E237FD92
:104130008DE2B70190E00E94D523A51438F4B701B1
:1041400080E390E00E94D5235A94F7CFAA94F4011B
:10415000EA0DF11D8081B70190E00E94D523A110E6
:10416000F5CF332009F451CEB70180E290E00E94F0
:10417000D5233A94F6CFF7018681978102C08FEF5D
:104180009FEF2C96E2E10C94DA2420FD09C0FC019B
:1041900023FD05C022FF02C07383628351834083E5
:1041A000089544FD10C046FD10C0DB01FC01AA0FBC
:1041B000BB1FEE1FFF1F1094D1F76A0F7B1F8E1FCE
:1041C0009F1F31E003C033E001C034E0660F771F6A
:1041D000881F991F3150D1F7620F711D811D911DEC
:1041E00008950F931F93CF93DF938C01C8010E9412
:1041F0009723EC0197FD08C00E94131E892BB1F78D
:10420000B801CE010E940D24CE01DF91CF911F9104
:104210000F910895A1E0B0E0E0E1F1E20C94C42434
:104220008C01C62E7A0129830E949723AC01552761
:1042300029814B32510521F04D32510569F4206836
:10424000CA94C11002C080E076C0C80129830E94D0
:104250009723298197FDF7CF322F3D7FD32E322F21
:10426000307349F5803339F5BB24BA94BC0C09F49A
:104270004EC0C80129830E949723298197FD47C01A
:10428000382F3F7D383569F48D2D8264D82ECA943D
:10429000CA94CC20E1F1C8010E94972397FF0BC07C
:1042A00036C026FF04C02D2D2260D22E03C03D2D26
:1042B0003261D32ECB2C812C912C540120ED280F70
:1042C000283080F0D4FE04C0B8010E940D241CC028
:1042D0002A3040F0D6FEF8CF2F7D3FEE320F363039
:1042E00098F727504D2DC501B4010E94D1204B01F4
:1042F0005C018D2D8260D82ECA94CC2059F0C80163
:104300000E94972397FFDACFD1FC04C09CCF812C69
:10431000912C5401D7FE08C0B094A094909480943E
:10432000811C911CA11CB11C2D2DB501A401C7013C
:104330000E94C52081E02196ECE00C94E024A1E2EB
:10434000B0E0E5EAF1E20C94C2245C017A01CE010E
:1043500001966C0180E2F60111928A95E9F7F50168
:10436000838040E050E0912C712C70E0A1E0B0E03F
:10437000F90183FC859183FE81918F01982F9F0124
:10438000811103C080E090E07CC08E3519F44115A6
:10439000510549F1E72FF0E0E417F5073CF48D35BE
:1043A00059F18D3219F4772001F103C0711001C069
:1043B000982E892F8695869586958601080F111D62
:1043C000892F87703D0101C0660C8A95EAF7F801D4
:1043D000808186298083991559F0991510F49F5F83
:1043E000E8CF9150E6CF71E004C07724739401C008
:1043F000712C4F5F5F4FBCCF772019F08E818062A8
:104400008E83711103C09924939416C0F6019E0106
:104410002F5D3F4F808180958193E217F307D1F79D
:10442000F2CFE114F10429F0F7018083C70101966E
:104430007C016150912CF9F0C50169A30E9497237A
:1044400069A197FD16C0282F269526952695F60179
:10445000E20FF11D208130E0AC014770552702C00A
:10446000359527954A95E2F720FDDBCFB5010E94EF
:104470000D24911087CFE114F10411F0F70110829F
:10448000C801A196EEE00C94DE244F925F927F92D9
:104490008F929F92AF92BF92CF92DF92EF92FF9254
:1044A0000F931F93CF93DF931F92CDB7DEB76C01AD
:1044B0002B015A01FC0117821682712CF601F38040
:1044C000F201F3FC8591F3FE8191382F2F018823AF
:1044D00009F4F3C090E039830E94131E3981892BBF
:1044E00021F0C6010E94F120E9CF353241F4F201FA
:1044F000F3FC3591F3FE31912F01353269F4C60199
:1045000039830E949723398197FDD5C03817B1F2BE
:10451000B6010E940D24D1C03A3239F4F3FC359132
:10452000F3FE31912F0151E001C050E0420110E053
:1045300020ED230F2A3090F45260612F70E080E06C
:1045400090E040E259830E94D120162FF401F3FC41
:104550003591F3FE31914F015981EACF052F232F79
:10456000240151FF03C0111102C0A7C01FEF38364C
:1045700019F03C3659F011C0F401F3FC2591F3FE1B
:1045800021912F01283649F4052F08600460F201BB
:10459000F3FC2591F3FE21912F01222309F48DC014
:1045A000622F70E081EB91E029830E9476232981BC
:1045B000892B09F482C000FD07C0F501E080F1807D
:1045C000C50102965C0102C0E12CF12C2E3651F49B
:1045D000F6014681578160E070E0202FC7010E94FC
:1045E000C5206CCF233691F401FF11E0C6010E9473
:1045F000972397FD60C0E114F10429F0F70180834F
:10460000C70101967C01115089F751C02B3559F42F
:104610009201A701612FC6010E949F212C01892BC5
:1046200009F045C03FC0C60129830E94F1202981BD
:1046300097FD41C02F3659F128F4243631F129363F
:1046400049F127C0233769F02537F9F022C0E1147A
:10465000F10429F0F7018082C70101967C01115015
:1046600071F0C6010E9497234C0197FD08C00E947B
:10467000131E892B61F3B601C4010E940D24E114BD
:10468000F104A9F0F701108212C0006203C00061BA
:1046900001C00064202FA701612FC6010E940A21DA
:1046A000811105C0F6018381807329F406C000FDE5
:1046B00005CF739403CF772019F0872D90E002C0C7
:1046C0008FEF9FEF0F90DF91CF911F910F91FF9090
:1046D000EF90DF90CF90BF90AF909F908F907F90A2
:1046E0005F904F900895992788270895FC010590C1
:1046F000061621F00020D9F7C00108953197CF01A7
:104700000895FC010590615070400110D8F7809524
:1047100090958E0F9F1F0895FC016150704001908D
:104720000110D8F7809590958E0F9F1F0895CF9315
:10473000DF93EC012B8120FF33C026FF0AC02F7BC3
:104740002B838E819F8101969F838E838A8190E047
:1047500029C022FF0FC0E881F9818081082E000C5A
:10476000990B009719F420622B831AC03196F983B4
:10477000E8830EC0EA85FB85099597FF09C02B8168
:10478000019611F080E201C080E1822B8B8308C08A
:104790002E813F812F5F3F4F3F832E83992702C099
:1047A0008FEF9FEFDF91CF9108950F931F93CF93DA
:1047B000DF93FB01238121FD03C08FEF9FEF28C012
:1047C00022FF16C046815781248135814217530745
:1047D00044F4A081B1819D012F5F3F4F318320833D
:1047E0008C93268137812F5F3F4F3783268310C0FC
:1047F000EB01092F182F0084F185E02D0995892BF5
:10480000E1F68E819F8101969F838E83812F902F69
:10481000DF91CF911F910F910895FB01238120FF1C
:1048200012C026FD10C08F3F3FEF930761F08283D7
:104830002F7D2064238326813781215031093783DE
:104840002683992708958FEF9FEF0895FA01AA27ED
:10485000283051F1203181F1E8946F936E7F6E5FC3
:104860007F4F8F4F9F4FAF4FB1E03ED0B4E03CD071
:10487000670F781F891F9A1FA11D680F791F8A1F54
:10488000911DA11D6A0F711D811D911DA11D20D0BB
:1048900009F468943F912AE0269F11243019305D75
:1048A0003193DEF6CF010895462F4770405D419366
:1048B000B3E00FD0C9F7F6CF462F4F70405D4A33B3
:1048C00018F0495D31FD4052419302D0A9F7EACF7B
:1048D000B4E0A6959795879577956795BA95C9F7AA
:1048E00000976105710508959B01AC010A2E06949D
:1048F0005795479537952795BA95C9F7620F731F56
:10490000841F951FA01D0895DC01CB01FC01F999BE
:10491000FECF06C0F2BDE1BDF89A319600B40D920B
:1049200041505040B8F70895F999FECF92BD81BD2E
:10493000F89A992780B50895DC01A40FB51F41505E
:10494000504048F0CB01840F951F2E910E94AD245A
:1049500041505040D0F70895262FF999FECF92BDCF
:1049600081BDF89A019700B4021639F01FBA20BD34
:104970000FB6F894FA9AF99A0FBE08952F923F92C3
:104980004F925F926F927F928F929F92AF92BF925F
:10499000CF92DF92EF92FF920F931F93CF93DF930B
:1049A000CDB7DEB7CA1BDB0B0FB6F894DEBF0FBE68
:1049B000CDBF09942A88398848885F846E847D84B5
:1049C0008C849B84AA84B984C884DF80EE80FD80B7
:1049D0000C811B81AA81B981CE0FD11D0FB6F8942D
:0E49E000DEBF0FBECDBFED010895F894FFCFEE
:1049EE000000760480000188038F032814281430F9
:1049FE003B3235353B333B303B31343B476174659D
:104A0E00776179207374617274757020636F6D7045
:104A1E006C6574652E0A00303B3235353B333B30C6
:104A2E003B31323B312E300A00544F3F00544F3A47
:104A3E00003A494E56003B002A2070617373776F1F
:104A4E007264206368616E676564202A0A00000044
:104A5E000000AA08D3035903F9085B096D05F8078E
:104A6E00470387050C0604057B098E037B03464C22
:104A7E00583F4E4F4B3A4E4F464C41534800464CD2
:104A8E00583F4F4B00464C583F00464C583F454F01
:104A9E004600464C583A25753A00464C58494D4703
:104AAE003A00464C583A25753A4F4B00464C583F03
:104ABE004E4F4B3A4845583E33316B0054696D6545
:104ACE006F75742F4572726F722C206572617369E7
:104ADE006E67207772697474656E206461746120EC
:104AEE002E2E2E2000436F6E6669672065786973DF
:104AFE0074732E2052656164696E672E2E2E0044EB
:104B0E00656661756C7420436F6E6669672E0073FF
:104B1E00616D706C65456E63727970744B6579006A
:104B2E00536176696E672E2E2E003100300053656C
:104B3E006E64696E67206E6574776F726B20646148
:104B4E007461004578697420696E636C75646500E4
:104B5E0000000000C6160118471661165316A4165B
:104B6E000D0A006E616E00696E66006F766600005B
:00000001FF
